:020000040800F2
:10000000C00D0020C1010008392E0008012B000896
:10001000352E0008CD0200080D3900080000000050
:10002000000000000000000000000000BB2F0008DE
:100030006104000800000000B92F0008BD2F00086F
:10004000DB010008DB010008DB010008DB01000820
:10005000DB010008DB010008DB010008DB01000810
:10006000DB010008DB010008DB010008DB01000800
:10007000DB010008DB010008DB010008DB010008F0
:10008000DB010008DB010008DB010008DB010008E0
:10009000D1020008DB010008DB010008DB010008D9
:1000A000DB010008DB010008DB010008DB010008C0
:1000B000DB010008DB010008DB010008DB010008B0
:1000C000DB010008DB010008DB010008DB010008A0
:1000D000DB010008DB010008DB010008DB01000890
:1000E000DB010008DB010008DB010008DB01000880
:1000F000DB010008DB010008DB010008DB01000870
:10010000DB010008DB010008DB010008DB0100085F
:10011000DB010008DB0100088D3000089D3000087D
:10012000DB010008DB010008DB010008DB0100083F
:10013000DB010008DB010008DB010008DB0100082F
:10014000DB010008DB010008DB010008DB0100081F
:10015000DB010008DB010008DB010008FD380008B6
:10016000DB010008DB010008DB010008DB010008FF
:10017000DB010008DB010008DB01000800000000D3
:10018000DB010008DB010008E9330008F93300084F
:10019000DB010008DB010008DB010008DB010008CF
:1001A0000000000000000000DB010008DFF80CD0B8
:1001B00000F07AF8004800478D3D0008C00D00208F
:1001C0000648804706480047FEE7FEE7FEE7FEE7F1
:1001D000FEE7FEE7FEE7FEE7FEE7FEE77930000810
:1001E000AD0100082DE9F05F0546002092469B46D0
:1001F00088460646814640241BE02846414647463D
:10020000224600F041F853465A46C01A914110D395
:1002100011461846224600F028F82D1A67EB01080F
:100220004F4622460120002100F01FF817EB00097D
:100230004E41201EA4F10104DFDC484631462A4627
:100240004346BDE8F09FD2B201E000F8012B491E01
:10025000FBD270470022F6E710B513460A46044663
:100260001946FFF7F0FF204610BD202A04DB203A94
:1002700000FA02F1002070479140C2F1200320FAF9
:1002800003F3194390407047202A04DB203A21FAF7
:1002900002F00021704721FA02F3D040C2F120029F
:1002A0009140084319467047064C074D06E0E06848
:1002B00040F0010394E8070098471034AC42F6D3AD
:1002C000FFF778FFF44B0008144C000800BFFEE76E
:1002D00010B5024800F02DFB10BD000054060020B0
:1002E000F8B507460C4615461E464FF400700D49FA
:1002F000086000208860C86008200861380A0A4940
:1003000008704F70200A8870CC70280A08714D71EF
:10031000300A8871CE716B460A460249034800F0E4
:1003200005F9F8BDA40000200000002054060020BC
:100330009FED0C0A80ED100A0022828702808286DF
:1003400082639FED080A81ED0F0A81ED0E0A81EDAF
:100350000D0A9FED040A81ED120A81ED110A81ED6B
:10036000100A7047000000000188B0F93420891A93
:10037000B1F5805F04DD818F491E09B281870AE0F3
:100380000188B0F93420891A11F5805F03DA818F72
:10039000491C09B281870288B0F93C1002EB413157
:1003A000816390ED0E0AF8EEC00AB3EE031A80EEF8
:1003B000810A9FED091AC0EE010A9FED080A20EE9E
:1003C000800A80ED100A0649097819B10021818759
:1003D000034A117070470000000000460000B4435B
:1003E00058000020DFED1B0AB0EE600A0022B0F9D1
:1003F000021000EE901AF8EEE00A011D164B1B7871
:1004000001EB8301C1ED000A13490978491C124B25
:100410001970194609780A291BD10021197000BFEB
:1004200009E0031D03EB8103D3ED000A70EE800A9F
:10043000B0EE600A491C0A29F3DBF2EE040A80EEF2
:10044000201AFDEEC10A10EE902AC2620121034B70
:100450001970704700000000590000200C000020B7
:1004600070472DE9FF4706460F4615469846DDE9D9
:100470000D9A0C9C002000900190029003908DF842
:100480000060FD208DF801008DF8027028128DF8B3
:100490000300E8B28DF804008DF80580200E8DF879
:1004A0000600200C8DF80700200A8DF80800E0B245
:1004B0008DF809008DF80A908DF80BA06B208DF84F
:1004C0000C000D21684604F05BFBBDE8FF871FB5FB
:1004D0000446002000900190029003908DF80040A7
:1004E0000A208DF801006D208DF802006B208DF838
:1004F00003000421684604F043FB1FBD72B600BF31
:10050000FEE710B5024692F82030012B01D0022BF5
:1005100006D110684069084314686061002010BD6E
:10052000506A40F4802050620120F8E7F0B504469C
:100530000D461E4694F8207020688368A86800B9AC
:1005400000E000BF012F01D0022F7DD103F08060B9
:1005500030B903F0006018B903F0805000287ED055
:10056000C3F30161012088403060A86860B9B5F824
:1005700000C0E86840EA4C5C206800F5C07000EB01
:100580000110C0F800C00FE0D5E901C040EACC007E
:10059000D5F80CC040EA0C00D4F800C00CF5C07CC3
:1005A0000CEB011CCCF80000D5F810C0206800F559
:1005B000C07000EB0110C0F804C0287D01280ED1E6
:1005C000206800F5C07000EB0110406840F4807CAA
:1005D000206800F5C07000EB0110C0F804C0D079AD
:1005E000000692F806C040EA0C4092F805C040EAC6
:1005F0000C2092F804C040EA0C00D4F800C00CF5BE
:10060000C07C0CEB011CCCF80C00D078000692F8F2
:1006100002C040EA0C4092F801C040EA0C2092F877
:1006200000C040EA0C00D4F800C00CF5C07C0CEB14
:10063000011CCCF80800206800F5C07000EB011028
:10064000006840F0010C01E00FE008E0206800F5D0
:10065000C07000EB0110C0F800C00020F0BD606A5F
:1006600040F4001060620120F8E7606A40F48020E6
:1006700060620120F2E70000F0B504460A462168F6
:1006800094F82050012D01D0022D7ED1424901F570
:100690000071086840F001000860086820F47C5090
:1006A00008600868566A40EA06200860107D00F07D
:1006B0001F06012000FA06F3C8699843C861A1F536
:1006C0000071D069C8B9D1F80C029843C1F80C0286
:1006D000908880B2968940EA064601F51070576905
:1006E00040F83760108880B2168940EA064601F566
:1006F0001070576900EBC7004660D069012819D116
:10070000D1F80C021843C1F80C02908880B2168808
:1007100040EA064601F51070576940F83760908945
:1007200080B2168940EA064601F51070576900EB61
:10073000C7004660906928B9D1F804029843C1F80F
:10074000040204E0D1F804021843C1F8040210695D
:1007500028B9D1F814029843C1F8140204E0D1F882
:1007600014021843C1F81402106A012804D1D1F808
:100770001C021843C1F81C02D1F8000220F001004D
:10078000C1F800020020F0BDFFE7606A40F480205D
:1007900060620120F7E7000000640040704770B518
:1007A000044694F82050012D01D0022D7DD151B97D
:1007B0002068C06800F0030080B9606A40F400104F
:1007C0006062012070BD2068006900F0030028B954
:1007D000606A40F4001060620120F3E7206800F5D1
:1007E000D87000EB0110006800F004009060906881
:1007F00040B9206800F5D87000EB01100068400D8A
:10080000106007E0206800F5D87000EB0110006868
:10081000C0085060206800F5D87000EB0110006837
:1008200000F00200D060206800F5D87000EB0110E5
:10083000406800F00F00082802D30820106108E08B
:10084000206800F5D87000EB0110406800F00F0040
:100850001061206800F5D87000EB0110406800F4CA
:100860007F40000A9061206800F5D87000EB01100D
:100870004068000C5061206800F5D87000EB011052
:1008800080681870206800F5D87000EB011080684F
:1008900000F47F40000A5870206800F5D87000EB23
:1008A0000110806800F47F0000E03CE0000C9870CC
:1008B000206800F5D87000EB01108068000ED87039
:1008C000206800F5D87000EB0110C068187120682E
:1008D00000F5D87000EB0110C06800F47F40000AFA
:1008E0005871206800F5D87000EB0110C06800F462
:1008F0007F00000C9871206800F5D87000EB0110A3
:10090000C068000ED87131B92068C06840F020007E
:100910002668F06005E02068006940F02000266845
:10092000306100204EE7606A40F480206062012060
:1009300048E72DE9F05F04460025206846692068F5
:10094000D0F80490206887682068D0F80CA0206850
:10095000D0F810B02068D0F8188006F00100002808
:1009600055D007F00100C0B101202168886007F070
:10097000020018B1204600F008FB0EE007F004006A
:1009800010B145F4006508E007F0080010B145F427
:10099000805502E0204600F0F7FA07F48070C8B1F5
:1009A0004FF480702168886007F4007018B1204609
:1009B00000F0EDFA0EE007F4806010B145F4005548
:1009C00008E007F4006010B145F4804502E02046DD
:1009D00000F0DCFA07F48030C8B14FF480302168B1
:1009E000886007F4003018B1204600F0D2FA0EE01B
:1009F00007F4802010B145F4004508E007F400201A
:100A000010B145F4803502E0204600F0C1FA06F04E
:100A1000080038B10AF0100020B145F4007510202C
:100A20002168C86006F0040040B10AF0080028B14F
:100A300008202168C860204600F0A8F906F00200EE
:100A400038B12068C06800F0030010B1204600F003
:100A50009FF906F0400038B10BF0100020B145F4CA
:100A6000806510202168086106F0200040B10BF07D
:100A7000080028B1082021680861204600F052FAD9
:100A800006F0100038B12068006900F0030010B1D2
:100A9000204600F048FA06F4003040B109F010009A
:100AA00028B1102021684860204600F03DFA06F485
:100AB000803040B109F0080028B108202168486062
:100AC000204600F067FA06F4004088B309F00400FD
:100AD00078B306F4807020B108F0010008B145F049
:100AE000010506F4007020B108F0020008B145F0DD
:100AF000020506F4806020B108F0040008B145F05A
:100B0000040506F40060A0B108F0700088B108F098
:100B10007000402817D006DC10280BD020280CD0FD
:100B2000302819D10CE0502810D0602814D110E0E2
:100B30001DE019E045F008050FE045F010050CE058
:100B400045F0200509E045F0400506E045F0800548
:100B500003E045F4807500E000BF00BF20688069B5
:100B600020F07000216888610420216848602DB160
:100B7000606A284360622046FFF710FEBDE8F09FE0
:100B800070B504460CB9012070BD94F8200010B96E
:100B9000204600F0AFF82068006840F001002168AE
:100BA000086000F07FFB05460DE000F07BFB401B7A
:100BB0000A2808D9606A40F400306062052084F891
:100BC00020000120E0E72068406800F001000028D4
:100BD000EBD02068006820F002002168086000F077
:100BE00061FB05460DE000F05DFB401B0A2808D9BB
:100BF000606A40F400306062052084F82000012023
:100C0000C2E72068406800F002000028EBD1207E97
:100C1000012806D12068006840F080002168086043
:100C200005E02068006820F0800021680860607E90
:100C3000012806D12068006840F040002168086063
:100C400005E02068006820F0400021680860A07E70
:100C5000012806D12068006840F020002168086063
:100C600005E02068006820F0200021680860E07E30
:100C7000012806D12068006820F010002168086073
:100C800005E02068006840F0100021680860207FBF
:100C9000012806D12068006840F00800216808603B
:100CA00005E02068006820F0080021680860607F87
:100CB000012806D12068006840F00400216808601F
:100CC00005E02068006820F0040021680860D4E98D
:100CD0000201084321690843616908436168491EAC
:100CE00008432168C86100206062012084F8200068
:100CF000002049E710B586B00446142101A8FFF78B
:100D0000A9FA1F492068884237D100BF002000900F
:100D10001C48006840F000701A49086008460068E6
:100D200000F00070009000BF00BF00BF00200090E6
:100D300014481038006840F0080012491039086063
:100D40000846006800F00800009000BF00BF0320C4
:100D500001900220029000200390032004900920BB
:100D6000059001A9084800F095F9002211461420C9
:100D700000F026FB142000F00FFB06B010BD0000B1
:100D80000064004040380240000C02407047000000
:100D900010B58AB0044601AB03AA00212046FFF734
:100DA000FEFC0398A0F2012007287DD2DFE800F0C6
:100DB0000405060708090A0000BF00BF00BF00BF06
:100DC00000BF00BF0398401E5349087008460078D2
:100DD0004D2110FB01F0514931F8200000B24E497D
:100DE00009784D2211FB02F14C4A02EB8101888601
:100DF0009DF805009DF8041040EA01204649097855
:100E00004D2211FB02F1454A22F821009DF807000E
:100E10009DF8061040EA012000B23F4909784D22B2
:100E200011FB02F13D4A02EB810148809DF8090067
:100E30009DF8081040EA012000B2374909784D2298
:100E400011FB02F1354A02EB810108869DF80A0088
:100E5000314909784D2211FB02F1304A02EB810140
:100E600081F832002C4909784D2211FB02F12B4AFE
:100E700002EB8100FFF7B6FA274909784D2211FBF2
:100E800002F1264A02EB8100FFF76EFA244800784F
:100E9000E8BB214800784D2110FB01F01F4901EB10
:100EA000800090ED100A00E032E01B4800784D21F0
:100EB00010FB01F0194901EB800080ED110A164882
:100EC00000784D2110FB01F0144901EB8000808F68
:100ED000114909784D2211FB02F1104A02EB810100
:100EE000A1F848000C4800784D2110FB01F0114694
:100EF00001EB8000806B084909784D2211FB02F15B
:100F0000064A02EB8101C86401200549087000E02F
:100F100000BF00BF0AB010BD0800002090020020F2
:100F20003C00002070477047704770B5044694F845
:100F30002000012822D1022084F8200020680068C7
:100F400020F001002168086000F0ACF905460DE0D2
:100F500000F0A8F9401B0A2808D9606A40F4003064
:100F60006062052084F82000012070BD2068406880
:100F700000F001000028EBD16062F6E7606A40F4FF
:100F8000002060620120F0E77047704770477047AB
:100F900070477047704770B50446A56D00F082F940
:100FA000064694F83500022808D08020606500BF0E
:100FB000002084F8340000BF012070BD2068006864
:100FC00020F01600216808602068406920F0800049
:100FD00021684861206C08B9A06C28B120680068BD
:100FE00020F00800216808602068006820F00100F7
:100FF0002168086010E000F055F9801B05280BD926
:1010000020206065032084F8350000BF002084F8AC
:10101000340000BF0320D0E72068006800F0010022
:101020000028E8D194F85C103F208840A860012097
:1010300084F8350000BF002084F8340000BF00BFF2
:10104000BBE7014691F83500022803D080204865AF
:1010500001207047052081F835000868006820F0FD
:1010600001000A6810600020F3E7000070B5044634
:1010700000F018F906462546681C10B104480078AF
:10108000054400BF00F00EF9801BA842FAD370BDE2
:1010900050000020F8B502460B4600250024002031
:1010A0000021E0E0012606FA01F51E6806EA0504C3
:1010B000AC4274D11E7906F00306012E04D01E79CD
:1010C00006F00306022E13D190684F000326BE409F
:1010D000B0434F00DE68BE40304390605068012648
:1010E0008E40B0431E79C6F300168E4030435060E8
:1010F0001E7906F00306032E09D0D0684F000326A0
:10110000BE40B0434F009E68BE403043D0601E7961
:1011100006F00306022E13D1CF0802F1200656F87E
:1011200027004E07F70E0F26BE40B0434F07FF0EB5
:101130001E69BE403043CF0802F1200646F8270062
:1011400010684F000326BE40B0431E7906F0030628
:101150004F00BE40304310605E6806F44036002EFB
:101160001DD000BF00260096414E366846F48046EA
:101170003F4F3E603E46366806F48046009600BF0C
:1011800000BF3C4E8F0856F827008E07370F0F26FA
:10119000BE40B043384EB24202D100262EE061E09C
:1011A000364EB24201D1012628E0354EB24201D17D
:1011B000022623E0334EB24201D103261EE0324E16
:1011C000B24201D1042619E0304EB24201D10526C7
:1011D00014E02F4EB24201D106260FE02D4EB2424E
:1011E00001D107260AE02C4EB24201D1082605E0C3
:1011F0002A4EB24201D1092600E00A268F073F0F8E
:10120000BE4030431B4E8F0846F82700244E3068FE
:10121000A0435E6806F4801606B12043204E30607D
:10122000361D3068A0435E6806F4001606B1204300
:101230001B4E361D30601A4E361F3068A0435E6864
:1012400006F4003606B12043154E361F3060361FB7
:101250003068A0435E6806F4803606B12043104E25
:10126000083E3060491C1029FFF41CAFF8BD000097
:1012700044380240083801400000024000040240A7
:1012800000080240000C024000100240001402401E
:1012900000180240001C02400020024000240240CE
:1012A000083C0140014800687047000048000020E9
:1012B00003480068034909780844014908607047F9
:1012C000480000205000002010B50D48006840F490
:1012D00000700B4908600846006840F480600860B0
:1012E0000846006840F480700860032000F0A6F80B
:1012F0000F2000F007F800F02BF8002010BD0000D0
:10130000003C024070B504460E4800784FF47A71F4
:10131000B1FBF0F00C490968B1FBF0F5284600F08C
:101320002FFC08B1012070BD102C07D200222146ED
:10133000501E00F045F80548046001E00120F2E786
:101340000020F0E750000020540000204C00002056
:1013500008B500BF002000900E48006840F48040AF
:101360000C4908600846006800F48040009000BF07
:1013700000BF00BF00200090081F006840F08050B0
:10138000091F08600846006800F08050009000BF08
:1013900000BF08BD443802400146084600280DDB66
:1013A00000BF00BF00F01F0301229A4043099B00C9
:1013B00003F1E023C3F8002100BF00BF00BF704766
:1013C0002DE9F05F80460D461646002702F0E0FB4F
:1013D000074639462A46334601F00700C0F1070A9E
:1013E000BAF1040F02D94FF0040A01E0C0F1070A74
:1013F000D14600F1040ABAF1070F02D24FF0000AF9
:1014000001E0A0F1030AD4464FF0010A0AFA09FAF2
:10141000AAF1010A0AEA020A0AFA0CFA4FF0010BD1
:101420000BFA0CFBABF1010B0BEA030B4AEA0B04C2
:101430002146404602F0B4FBBDE8F09F00BF00F03B
:101440000702064B19684FF6FF031940044B0B4384
:1014500043EA0221014B196000BF70470CED00E028
:101460000000FA0570B504460D460CB9012070BDA8
:101470005848006800F00F00A84209D255490D7085
:101480000846006800F00F00A84201D00120EEE7F6
:10149000207800F0020002281DD1207800F004001E
:1014A000042805D14C48006840F4E0504A490860DF
:1014B000207800F00800082805D14748006840F46B
:1014C0006040454908604448006820F0F000A16889
:1014D000084341490860207800F00100A8B3606823
:1014E000012807D13C4808380068C0F34040B8B92B
:1014F0000120BCE76068022802D06068032807D199
:10150000354808380068C0F3406048B90120AEE7AC
:10151000314808380068C0F3400008B90120A6E748
:101520002D48006820F00300616808432A490860DC
:10153000FFF7B8FE064609E0FFF7B4FE801B41F254
:101540008831884202D9032091E707E022480068E9
:1015500000F00C006168B0EB810FEDD11D48006810
:1015600000F00F00A84209D91A490D70084600681A
:1015700000F00F00A84201D0012078E7207800F0A9
:101580000400042807D11448006820F4E050E16802
:10159000084311490860207800F00800082808D1A5
:1015A0000D48006820F46040216940EAC1000A4902
:1015B000086000F03FF808490968C1F30311074AC1
:1015C000515CC8400649086006480068FFF79AFE6B
:1015D00000204CE7003C024008380240AC4B0008B9
:1015E000540000204C0000200148006870470000B3
:1015F0005400002000B5FFF7F7FF04490968C1F364
:101600008221034A515CC84000BD000008380240F6
:10161000BC4B000800B5FFF7E7FF04490968C1F3B8
:101620004231034A515CC84000BD00000838024006
:10163000BC4B00082DE9F047002400250026A146F8
:101640002548006800F00C0020B1042805D00828C7
:101650003AD105E0DFF8849039E0DFF8849036E095
:101660001D48001F006800F03F041B48001F006871
:1016700000F4800078B11A481749091F0968C1F3BE
:101680008811A0FB01700146224600233846FEF770
:10169000A9FD05460EE011480F49091F0968C1F36D
:1016A0008811A0FB01700146224600233846FEF750
:1016B00099FD05460848001F0068C0F30140401C22
:1016C0004600B5FBF6F902E0DFF8109000BF00BF5E
:1016D0004846BDE8F0870000083802400024F400C6
:1016E000001BB700F8B504460CB90120F8BD2078FE
:1016F00000F00100002874D0F948006800F00C00E8
:1017000004280DD0F648006800F00C00082813D11A
:10171000F348001F006800F48000B0F5800F0BD183
:10172000EF4808380068C0F34040002859D060688E
:10173000002856D10120D9E700BF6068B0F5803F8E
:1017400008D1E7480838006840F48030E449083997
:1017500008601EE06068B0F5A02F0DD1E0480838A1
:10176000006840F48020DE490839086008460068B7
:1017700040F4803008600CE0D9480838006820F454
:101780008030D749083908600846006820F4802076
:10179000086000BF606890B1FFF784FD054606E071
:1017A000FFF780FD401B642801D903209EE7CC4849
:1017B00008380068C0F340400028F1D011E0FFF77E
:1017C00071FD054606E0FFF76DFD401B642801D959
:1017D00003208BE7C24808380068C0F34040002867
:1017E000F1D1207800F0020002285FD1BC480068E7
:1017F00000F00C0058B1BA48006800F00C0008284E
:101800001CD1B748001F006800F48000B0B9B4488C
:1018100008380068C0F3400020B1E068012801D01A
:10182000012063E7AE480838006820F0F80021691D
:1018300040EAC100AA490839086037E0E06800B30F
:101840000120A8490860FFF72DFD054606E0FFF7D7
:1018500029FD401B022801D9032047E7A04808388A
:101860000068C0F340000028F1D09D4808380068A7
:1018700020F0F800216940EAC10099490839086060
:1018800014E0002097490860FFF70CFD054606E0CC
:10189000FFF708FD401B022801D9032026E79048E6
:1018A00008380068C0F340000028F1D1207800F02B
:1018B000080008282CD16069A8B101208A49086075
:1018C000FFF7F0FC054606E0FFF7ECFC401B0228A2
:1018D00001D903200AE782486C300068C0F3400059
:1018E0000028F1D014E000207F490860FFF7DAFCFF
:1018F000054606E0FFF7D6FC401B022801D903206D
:10190000F4E677486C300068C0F340000028F1D15D
:10191000207800F00400042870D100277048383087
:10192000006800F0805090B900BF002000906C4823
:101930003830006840F08050694938310860084606
:10194000006800F08050009000BF00BF012767488A
:10195000006800F48070B0B96448006840F480709A
:1019600062490860FFF79EFC054606E0FFF79AFC17
:10197000401B022801D90320B8E65C48006800F447
:1019800080700028F2D000BFA068012808D1544818
:101990006830006840F001005149683108601DE07E
:1019A000A06805280DD14E486830006840F004005A
:1019B0004B49683108600846006840F00100086043
:1019C0000CE047486830006820F001004449683165
:1019D00008600846006820F00400086000BFA068A6
:1019E000A8B1FFF75FFC054609E0FFF75BFC401B71
:1019F00041F28831884202D9032077E626E0384850
:101A000068300068C0F340000028EED013E0FFF714
:101A100049FC054608E0FFF745FC401B41F28831D0
:101A2000884201D9032061E62D4868300068C0F380
:101A300040000028EFD1012F07D129483830006835
:101A400020F0805026493831086000BFA069002886
:101A500045D02348006800F00C0008285DD0A0693C
:101A6000022845D100201F490866FFF71BFC0546E8
:101A700006E0FFF717FC401B022801D9032035E6DA
:101A8000174808380068C0F340600028F1D1D4E955
:101A900007010843616A40EA81110122A06AC2EB92
:101AA000500041EA00412C20005D41EA00600C49F1
:101AB000091F086001200B490866FFF7F3FB054684
:101AC00006E0FFF7EFFB401B022801D903200DE6DB
:101AD000034808380068C0F340600028F1D049E0AE
:101AE0000838024000004742800E47420070004024
:101AF000002021490866FFF7D5FB054606E0FFF701
:101B0000D1FB401B022801D90320EFE51B480068E8
:101B1000C0F340600028F2D12CE0A069012800D178
:101B2000E4E51648001D0668A069012820D006F4E7
:101B30008001E06981421BD106F03F01206A8142A9
:101B400016D147F6C0703040616AB0EB811F0FD1EB
:101B500006F440310122A06AC2EB5000B1EB004F05
:101B600006D106F070612C20005DB1EB006F01D052
:101B70000120BBE50020B9E50000474200380240E3
:101B800070B504462546681EB0F1807F01D3012060
:101B90000FE0681E4FF0E02148610F214FF0FF3049
:101BA00001F0FEFF00204FF0E0218861072008616E
:101BB000002070BD7047704730B502460B4600BF2D
:101BC00092F83C00012801D1022030BD012082F8AA
:101BD0003C0000BF022082F83D0010684468106895
:101BE000816824F070041868044310684460184D3C
:101BF0001068A8421BD01068B0F1804F17D0154D67
:101C00001068A84213D0144D1068A8420FD0134D8D
:101C10001068A8420BD0124D1068A84207D0114D91
:101C20001068A84203D0104D1068A84205D121F0D9
:101C300080015868014310688160012082F83D00EE
:101C400000BF002082F83C0000BF00BFBDE70000DD
:101C5000000001400004004000080040000C00406B
:101C600000040140004001400018004010B5044647
:101C70000CB9012010BD94F83D0028B9002084F86B
:101C80003C00204600F026F8022084F83D00211D8B
:101C9000206801F00BFA012084F8460000BF84F8A8
:101CA0003E0001213F2001554020015541200155B2
:101CB00000BF00BF012084F84200432001554420AA
:101CC00001554520015500BF012084F83D0000204A
:101CD000D0E7000038B504462649206888420FD175
:101CE00000BF002000902448006840F0080022490E
:101CF00008600846006800F00800009000BF38E067
:101D00001E492068884218D100BF002000901A4860
:101D1000006840F01000184908600846006800F0AC
:101D20001000009000BF00BF002211463620FFF7D0
:101D300047FB3620FFF730FB1BE011492068884243
:101D400017D100BF002000900B48006840F0200031
:101D5000094908600846006800F02000009000BFB4
:101D600000BF002211463720FFF72AFB3720FFF77C
:101D700013FB38BD000C004040380240001000400A
:101D800000140040014691F83D00012801D00120D7
:101D90007047022081F83D000868C06840F00100EB
:101DA0000B68D8601A4B086898421BD00868B0F1DD
:101DB000804F17D0174B0868984213D0164B08680D
:101DC00098420FD0154B086898420BD0144B086806
:101DD000984207D0134B0868984203D0124B08680A
:101DE00098420CD10868806800F00702062A0CD0DF
:101DF0000868006840F001000B68186005E008689A
:101E0000006840F001000B6818600020C0E7000087
:101E1000000001400004004000080040000C0040A9
:101E200000040140004001400018004001460868DD
:101E3000C06820F001000A68D06000BF0868006A2E
:101E400041F21112104050B90868006A9210104017
:101E500028B90868006820F001000A68106000BF17
:101E6000012081F83D00002070472DE9F041044633
:101E70000D46002700BF94F83C00012802D1022043
:101E8000BDE8F081012084F83C0000BF022084F806
:101E90003D002068866826F0770626F47F46206895
:101EA00086602868502833D00CDC202850D004DC11
:101EB00000284BD0102851D149E0302849D0402883
:101EC0004CD139E060282DD0702807D0B0F5805F64
:101ED00003D0B0F5005F41D10DE041E0D5E9021338
:101EE0006A68206801F067F92068866846F077061E
:101EF0002068866034E0D5E902136A68206801F042
:101F00005AF92068806840F480402168886027E0A2
:101F1000EA686968206801F03FFA5021206801F002
:101F200055F91DE0EA686968206801F048FA602107
:101F3000206801F04BF913E0EA686968206801F055
:101F40002BFA4021206801F041F909E000BF00BFF1
:101F500000BF2968206801F039F901E0012700BFBE
:101F600000BF012084F83D0000BF002084F83C0041
:101F700000BF384684E7704770B504462068C568DE
:101F80002068066906F00200022819D105F0020057
:101F9000022815D1401F21680861012020772068A0
:101FA000806900F0030018B12046FFF7E4FF05E068
:101FB000204600F0E7F8204600F09BF9002020774B
:101FC00006F00400042819D105F00400042815D1F6
:101FD000C04321680861022020772068806900F4EE
:101FE000407018B12046FFF7C6FF05E0204600F01C
:101FF000C9F8204600F07DF90020207706F008009F
:10200000082819D105F00800082815D1C043216817
:102010000861042020772068C06900F0030018B12F
:102020002046FFF7A8FF05E0204600F0ABF8204669
:1020300000F05FF90020207706F01000102819D179
:1020400005F01000102815D1C04321680861082050
:1020500020772068C06900F4407018B12046FFF76F
:102060008AFF05E0204600F08DF8204600F041F997
:102070000020207706F0010048B105F0010030B1E2
:102080006FF0010021680861204600F0B9F906F000
:102090008000802809D105F08000802805D1C04348
:1020A000216808612046FFF785FD06F040004028C2
:1020B00009D105F04000402805D1C04321680861DE
:1020C000204600F0B9F906F02000202809D105F0DB
:1020D0002000202805D1C043216808612046FFF771
:1020E0006AFD70BD10B586B00446142101A8FEF744
:1020F000B1F820492068884239D100BF0020009003
:102100001D48006840F480701B490860084600685C
:1021100000F48070009000BF00BF00BF002000905E
:102120000846006840F0800008600846006800F03B
:102130008000009000BF00BF0120019002200290AB
:102140000020039004900220059001A90B48FEF79F
:10215000A1FF4FF4805001900220029000200390D4
:1021600004900220059001A90548FEF793FF06B0F0
:1021700010BD0000000C004030380240002002403A
:10218000001C024070472DE9F04104460D461646FA
:10219000002700BF94F83C00012802D10220BDE8CE
:1021A000F081012084F83C0000BF36B1042E1BD022
:1021B000082E31D00C2E5ED145E02946206801F072
:1021C0000FF82068806940F0080021688861206865
:1021D000806920F00400216888612068806929698D
:1021E00008432168886148E02946206801F030F8FA
:1021F0002068806940F400602168886120688069F7
:1022000020F480602168886120688069296940EA3B
:1022100001202168886130E02946206801F056F8E5
:102220002068C06940F008002168C8612068C06962
:1022300020F004002168C8612068C069296908434A
:102240002168C86119E02946206801F07BF8206800
:10225000C06940F400602168C8612068C06920F44A
:1022600080602168C8612068C069296940EA01204E
:102270002168C86101E0012700BF00BF00BF002046
:1022800084F83C0000BF384689E710B504460CB915
:10229000012010BD94F83D0028B9002084F83C00CE
:1022A000204600F025F8022084F83D00211D20681A
:1022B00000F0FCFE012084F8460000BF84F83E00D8
:1022C00001213F200155402001554120015500BF0B
:1022D00000BF012084F842004320015544200155ED
:1022E0004520015500BF012084F83D000020D0E7C3
:1022F0007047704770B504460D4615B994F83E0016
:102300000BE0042D02D13F20005D06E0082D02D134
:102310004020005D01E04120005D012801D0012046
:1023200070BD1DB9022084F83E000EE0042D03D1DB
:1023300002213F20015508E0082D03D10221402051
:10234000015502E002214120015501222946206861
:1023500000F020FF23492068884203D022492068EA
:10236000884201D1012000E0002028B12068406CA3
:1023700040F40040216848641A49206888421BD014
:102380002068B0F1804F17D018492068884213D0D8
:102390001749206888420FD01649206888420BD020
:1023A00011492068884207D013492068884203D029
:1023B0001249206888420CD12068806800F0070626
:1023C000062E0CD02068006840F0010021680860EB
:1023D00005E02068006840F00100216808600020E6
:1023E0009EE700000000014000040140000400409E
:1023F00000080040000C0040004001400018004070
:10240000094A0168914204D108490968491C074AF0
:102410001160074A0168914204D106490968491CC4
:10242000044A116070470000001000404000002086
:1024300000140040440000207047704770470000BF
:102440002DE9F84F0446206805682068C6682068B2
:1024500047694FF00009CA4605F00F09B9F1000FAE
:102460000AD105F0200038B106F0200020B1204646
:1024700001F01AF8BDE8F88FB9F1000F7CD007F031
:10248000010018B906F49070002875D005F001001D
:1024900030B106F4807018B1606C40F001006064E7
:1024A00005F0040030B107F0010018B1606C40F095
:1024B0000200606405F0020030B107F0010018B1BD
:1024C000606C40F00400606405F0080048B106F05C
:1024D000200010B907F0010018B1606C40F008004E
:1024E0006064606C002846D005F0200028B106F03A
:1024F000200010B1204600F0D7FF20684069C0F3EB
:10250000801A606C00F0080010B9BAF1000F2DD0ED
:10251000204600F083FF2068406900F0400040281A
:1025200020D100BF00BF2168143151E8001F21F005
:1025300040002168143141E80002002AF3D100BFB5
:10254000E06B50B17748E16B0865E06BFEF779FD11
:1025500088B1E06B016D88470DE02046FFF76EFF04
:1025600009E009E02046FFF769FF04E02046FFF795
:1025700065FF002060647DE7206B012878D105F0BD
:102580001000002874D006F010000028FAD000BF18
:10259000002000902068006800902068406800904B
:1025A00000BF00BF2068406900F04000402860D1B3
:1025B000E06B006840681FFA80F8B8F1000F56D051
:1025C000A08D404553DDA4F82E80E06BC069B0F5C6
:1025D000807F43D000BF00BF21680C3151E8001F4D
:1025E00021F4807021680C3141E80002002AF3D107
:1025F00000BF00BF00BF2168143151E8001F21F067
:1026000001002168143141E80002002AF3D100BF23
:1026100000BF00BF2168143151E8001F21F04000C5
:102620002168143141E80002002AF3D100BF2020C4
:1026300084F842000020206300BF00BF21680C31F5
:1026400051E8001F21F0100021680C3141E8000220
:10265000002AF3D100BFE06BFEF79DFC022060630F
:10266000A08DE28D801A81B22046FFF7E6FE01E7D9
:1026700042E0A08DE18D401A1FFA80F8E08DD0B3C2
:10268000B8F1000F37D000BF00BF21680C3151E80E
:10269000001F21F4907021680C3141E80002002AEB
:1026A000F3D100BF00BF00BF2168143151E8001F03
:1026B00021F001002168143141E80002002AF3D121
:1026C00000BF202084F842000020206300BF00BF2C
:1026D00021680C3151E8001F21F0100021680C31F5
:1026E00041E80002002AF3D100BF022060634146A6
:1026F0002046FFF7A2FEBDE605F0800030B106F0EF
:10270000800018B1204601F083F8B3E605F04000E0
:1027100030B106F0400018B1204600F0B5FEA9E641
:1027200000BFA7E60934000810B504460CB9012023
:1027300010BDA06900B100E000BF94F8410028B9C5
:10274000002084F84000204600F02AF8242084F875
:1027500041002068C06820F400502168C86020460D
:1027600000F020FF2068006920F490402168086193
:102770002068406920F02A00216848612068C0680C
:1027800040F400502168C86000206064202084F874
:10279000410084F842000020606300BFC8E70000E9
:1027A00010B586B00446142101A8FDF753FD794900
:1027B0002068884239D100BF002000907648006828
:1027C00040F08040744908600846006800F080408E
:1027D000009000BF00BF00BF002000906E4810387E
:1027E000006840F010006C49103908600846006825
:1027F00000F01000009000BF00BF4FF4C0700190C7
:1028000002200290002003900320049008200590ED
:1028100001A96248FEF73EFC002211465220FEF755
:10282000CFFD5220FEF7B8FDB1E05D492068884237
:1028300038D100BF002000905748006840F00040A9
:10284000554908600846006800F00040009000BF4D
:1028500000BF00BF002000904F481038006840F0D3
:1028600010004D49103908600846006800F010005B
:10287000009000BF00BF03200190022002900020C2
:102880000390032004900820059001A94348FEF717
:1028900001FC002211465320FEF792FD5320FEF763
:1028A0007BFD74E03F492068884231D100BF0020A1
:1028B00000903948006840F4802037490860084695
:1028C000006800F48020009000BF00BF00BF00201F
:1028D000009031481038006840F008002E49103947
:1028E00008600846006800F00800009000BF00BFC4
:1028F0004FF44070019002200290002003900320CA
:1029000004900720059001A92748FEF7C3FB3EE08D
:102910002649206888423AD100BF002000901E4816
:10292000001D006840F020001B49091D0860084692
:10293000006800F02000009000BF00BF00BF002032
:10294000009015481038006840F0400012491039D6
:1029500008600846006800F04000009000BF00BF1B
:102960004FF4844001900220029000200390032045
:1029700004900820059001A90D48FEF78BFB00226A
:1029800011464720FEF71CFD4720FEF705FD06B067
:1029900010BD0000007800404038024000100240A6
:1029A000007C004000480040000C02400014014040
:1029B0000018024070B504460D46164694F84200D1
:1029C00020280BD105B10EB9012070BD0020206375
:1029D00032462946204600F0FBFEF6E70220F4E7E7
:1029E00010B504460D492068884204D101220C49E3
:1029F0000C48FFF7DFFF0C492068884204D1012210
:102A00000A490B48FFF7D6FF0A492068884204D1DB
:102A1000012209490948FFF7CDFF10BD007C0040A5
:102A200022000020E4080020007800402000002060
:102A30009C0800200014014024000020740900209C
:102A40002DE9F84F04460E46174699464FF0000A06
:102A500094F84100202850D106B117B90120BDE8F3
:102A6000F88F00206064212084F84100FEF71AFCF2
:102A70008246A784E784A068B0F5805F04D120690E
:102A800010B90025B04602E035464FF000081EE0C0
:102A90005346002280212046CDF8009000F0E8FE49
:102AA00020B1202084F841000320D8E745B9B8F8C8
:102AB0000000C0F308002168486008F1020803E044
:102AC0002878216848606D1CE08C401EE084E08C12
:102AD0000028DDD15346002240212046CDF8009049
:102AE00000F0C6FE20B1202084F841000320B6E7A4
:102AF000202084F841000020B1E70220AFE77047B2
:102B000000BFFEE710B50E480E490860032048607C
:102B100000210C488160C1604FF4102101614FF425
:102B2000001141610021017641768176C1760177FD
:102B30004177FEF725F808B1FDF7E0FC10BD000075
:102B4000006400405406002008B500BF002000903B
:102B50002C48006840F010002A49086008460068C8
:102B600000F01000009000BF00BF00BF00200090E8
:102B70000846006840F0400008600846006800F021
:102B80004000009000BF00BF00BF0020009008463A
:102B9000006840F0010008600846006800F001008D
:102BA000009000BF00BF00BF0020009008460068F2
:102BB00040F0080008600846006800F00800009037
:102BC00000BF00BF00BF002000900846006840F42E
:102BD000807008600846006800F48070009000BFB4
:102BE00000BF00BF002000900846006840F0800051
:102BF00008600846006800F08000009000BF00BF39
:102C000008BD00003038024000B58DB000200990AA
:102C10000A900B900C90079008901C216846FDF7D5
:102C200019FB24482449086040F28F604860002165
:102C30002148816040F2E731C1600021016181617A
:102C4000FFF714F808B1FDF759FC4FF480500990D4
:102C500009A91948FFF709F908B1FDF74FFC164813
:102C6000FFF713FB08B1FDF749FC0020079008901F
:102C700007A91148FEF7A0FF08B1FDF73FFC60204F
:102C800000900020019002900490082269460A48B2
:102C9000FFF779FA08B1FDF731FC0C2269460648C6
:102CA000FFF771FA08B1FDF729FC0348FFF71AFA9C
:102CB0000DB000BD000C00407C0600201CB50020BB
:102CC000009001900E480F49086053204860002191
:102CD0000C48816040F2E731C16000218161FEF75C
:102CE000C5FF08B1FDF70AFC00200090019069467D
:102CF0000448FEF761FF08B1FDF700FC1CBD0000B1
:102D000000100040C40600201CB500200090019077
:102D10000E480F4908605320486000210C4881602C
:102D200040F2E731C16000218161FEF79FFF08B1E9
:102D3000FDF7E4FB00200090019069460448FEF78F
:102D40003BFF08B1FDF7DAFB1CBD0000001400409A
:102D50000C07002010B50B480B4908604FF4E13018
:102D60004860002108488160C16001610C21416117
:102D700000218161C161FFF7D7FC08B1FDF7BEFBFF
:102D800010BD0000007800409C08002010B50B48E2
:102D90000B4908604FF4E130486000210848816029
:102DA000C16001610C21416100218161C161FFF7B6
:102DB000BBFC08B1FDF7A2FB10BD0000007C004089
:102DC000E408002010B50B480B4908604FF4E130CF
:102DD0004860002108488160C16001610C214161A7
:102DE00000218161C161FFF79FFC08B1FDF786FBFF
:102DF00010BD0000004800402C09002010B50B4811
:102E00000B4908604FF4E1304860002108488160B8
:102E1000C16001610C21416100218161C161FFF745
:102E200083FC08B1FDF76AFB10BD000000140140EF
:102E30007409002000BFFEE700BFFEE700B50346AF
:102E4000B0EE401A13B99FED420A00BD93ED110A8E
:102E500083ED120A93ED100A83ED110AC3ED050A02
:102E600083ED061A30EEC10A83ED100A93ED100AC5
:102E7000D3ED071AB4EEE10AF1EE10FA0ED293ED9B
:102E8000100AD3ED071AF1EE611AB4EEE10AF1EE81
:102E900010FA03DD9FED2E0A83ED100A93ED000A70
:102EA000D3ED101A20EE210A83ED0A0A93ED0B0AE6
:102EB000D3ED011A93ED102A01EE820A83ED0B0A7D
:102EC00093ED0E0A83ED0F0A93ED0D0A83ED0E0AC2
:102ED00093ED100AD3ED111A30EE610A83ED0D0A5D
:102EE00093ED020AD3ED0D1A20EE210A83ED0C0AB0
:102EF00093ED040ABDEEC00A10EE101A93ED0B0A12
:102F0000BDEEC00A10EE100A00F02AFF83ED0B0A96
:102F100093ED0A0AD3ED0B1A30EE210AD3ED0C1A09
:102F200030EE210A83ED090A93ED030ABDEEC00AD3
:102F300010EE101A93ED090ABDEEC00A10EE100A49
:102F400000F00EFF83ED090A93ED090A7DE700000A
:102F50000000000000B101B97047D1ED001AC0EDCA
:102F6000001AD1ED011AC0ED011AD1ED021AC0ED1F
:102F7000021AC0ED030A80ED041A80ED070ADFEDA6
:102F80000D1AC0ED0F1AC0ED0E1AC0ED0D1ADFEDCF
:102F9000091AC0ED091AC0ED0C1AC0ED0B1AC0EDEC
:102FA0000A1AC0ED121AC0ED111AC0ED101A00BFB6
:102FB000D2E70000000000007047704710B5FEF730
:102FC00077F910BD00B593B0302107A8FDF742F99D
:102FD000142102A8FDF73EF900BF0020019024480B
:102FE000006840F08050224908600846006800F000
:102FF0008050019000BF00BF00BF002001901D481D
:10300000006840F440401B4908600846006800F42E
:103010004040019000BF00BF0120079000040890CD
:1030200002200D9041050E9106210F91A8211091CB
:10303000022111910421129107A8FEF753FB08B158
:10304000FDF75CFA0F20029002200390002004900C
:103050004FF4A05005904FF480500690052102A82F
:10306000FEF700FA08B1FDF749FA13B000BD000001
:1030700040380240007000400348006840F470008F
:10308000014908607047000088ED00E010B5024873
:10309000FEF772FF10BD0000C406002010B5024804
:1030A000FEF76AFF10BD00000C07002010B5026893
:1030B0002D4B98420ED0B0F1804F0BD02B4B984245
:1030C00008D02B4B984205D02A4B984202D02A4B6D
:1030D000984203D122F070024B681A43224B984267
:1030E00020D0B0F1804F1DD0204B98421AD0204BF9
:1030F000984217D01F4B984214D01F4B984211D0C2
:103100001E4B98420ED01E4B98420BD01D4B98423E
:1031100008D01D4B984205D01C4B984202D01C4B46
:10312000984203D122F44072CB681A4322F0800304
:103130004C6943EA040202608B68C3620B688362D5
:10314000094B984202D00C4B984201D10B690363A2
:1031500001234361036903F001031BB1036923F0F9
:103160000103036110BD00000000014000040040A5
:1031700000080040000C00400004014000400140F5
:10318000004401400048014000180040001C00407D
:103190000020004030B501F01F05012404FA05F3BA
:1031A000046A9C430462046A01F01F0502FA05F5F3
:1031B0002C43046230BD30B50C46816821F47F4158
:1031C00042EA032525432943816030BD0A468168D0
:1031D00021F0700142F0070319438160704700003D
:1031E00030B5026A056A25F0010505624368846905
:1031F00024F0700424F003040D682C4322F0020232
:103200008D682A43104DA84200D103E00F4DA8421B
:1032100006D100BF22F00802CD682A4322F0040242
:10322000094DA84202D0094DA84207D123F480736A
:1032300023F400734D692B438D692B4343608461F4
:103240004D684563026230BD00000140000401404A
:1032500030B5026A056A25F0100505624368846985
:1032600024F4E04424F440740D6844EA052422F078
:1032700020028D6842EA0512124DA84200D103E0F7
:10328000114DA84207D100BF22F08002CD6842EA6A
:10329000051222F040020B4DA84202D00A4DA8426E
:1032A00009D123F4806323F400634D6943EA850365
:1032B0008D6943EA8503436084614D6885630262DA
:1032C00030BD0000000001400004014030B5026A3A
:1032D000056A25F4807505624368C46924F07004AA
:1032E00024F003040D682C4322F400728D6842EA36
:1032F0000522124DA84200D103E0114DA84207D18A
:1033000000BF22F40062CD6842EA052222F4806206
:103310000A4DA84202D00A4DA84209D123F4805395
:1033200023F400534D6943EA05138D6943EA0513FD
:103330004360C4614D68C563026230BD0000014056
:103340000004014030B5036A056A25F48055056222
:103350004468C26922F4E04222F440720D6842EAF5
:10336000052223F400538D6843EA0533084DA84233
:1033700002D0084DA84204D124F480444D6944EAA7
:1033800085144460C2614D680564036230BD00006D
:10339000000001400004014030B50B461446026AAB
:1033A000056A25F001050562816921F0F00141EA15
:1033B000041122F00A021A438161026230BD30B565
:1033C0000B461446026A056A25F0100505628169FC
:1033D00021F4704141EA043122F0A00242EA0312D2
:1033E0008161026230BD000010B50248FFF728F885
:1033F00010BD00009C08002010B50248FFF720F81F
:1034000010BD0000E408002070B50546AC6B00203C
:10341000E085E0842046FFF711F870BD00BF00BFD3
:1034200002680C3252E8002F22F4907102680C32CC
:1034300042E80013002BF3D100BF00BF00BF0268B9
:10344000143252E8002F22F001010268143242E8DF
:103450000013002BF3D100BF016B01290ED100BF77
:1034600000BF02680C3252E8002F22F010010268FF
:103470000C3242E80013002BF3D100BF202180F86A
:10348000421000210163704710B504462068C068EF
:1034900020F040002168C860202084F841002046C8
:1034A000FFF72DFB002010BDF8B5044694F842004C
:1034B000222875D1A068B0F5805F0CD1206950B981
:1034C0000025A66A20684068C0F308003080A06A22
:1034D000801CA06215E0A56A0026A068B0F5805F98
:1034E00003D0A06828B9206918B9206840682870FE
:1034F00004E02068406800F07F002870A06A401C4B
:10350000A062E08D401E80B2E085002846D1206890
:10351000C06820F020002168C8602068C06820F4DE
:1035200080702168C8602068406920F0010021682F
:103530004861202084F8420000206063206B01284D
:1035400026D10020206300BF00BF21680C3151E864
:10355000001F21F0100021680C3141E80002002A10
:10356000F3D100BF2068006800F0100010280AD1D5
:1035700000BF00200090206800680090206840682C
:10358000009000BF00BFA18D2046FEF756FF02E06D
:103590002046FFF725FA0020F8BD01E00020FBE7F8
:1035A0000220F9E72DE9F84F04462068006920F46D
:1035B0004050E1680843216808612169A068084318
:1035C00061690843E169084300902068C06849F2D6
:1035D0000C618843009908432168C86020684069ED
:1035E00020F44070A1690843216848617649206849
:1035F000884203D075492068884203D1FEF70AF853
:10360000814602E0FDF7F6FF8146E069B0F5004F24
:103610006CD102206168A0FB015003461920A9FB70
:10362000007001462A463846FCF7DCFD6421B0FBF9
:10363000F1F04FEA001A02206168A0FB01510B462D
:103640001920A9FB00712A463846FCF7CBFD8346BA
:1036500002206168A0FB015003461920A9FB0071FC
:103660002A463846FCF7BEFD6421B0FBF1F000EBC2
:10367000C00101EB0010ABEB8000322101EBC00078
:103680006421B0FBF1F000F0F8000AEB400A0220E0
:103690006168A0FB015003461920A9FB0070014698
:1036A0002A463846FCF79EFD834602206168A0FB4F
:1036B000015003461920A9FB00712A463846FCF741
:1036C00091FD6421B0FBF1F000EBC00101EB0010B3
:1036D000ABEB8000322101EBC0006421B0FBF1F0C4
:1036E00000F007005044216888606AE004206168A7
:1036F000A0FB015003461920A9FB007001462A4691
:103700003846FCF76FFD824604206168A0FB01503B
:1037100003461920A9FB007001462A463846FCF7EB
:1037200061FD6421B0FBF1F000EBC00101EB001082
:10373000AAEB8000322101EB00106421B0FBF1F014
:1037400000F0F00A04206168A0FB01700346192014
:10375000A9FB00513A462846FCF744FD6421B0FB22
:10376000F1F00AEB001A04206168A0FB01510B463E
:103770001920A9FB00712A463846FCF733FD834621
:1037800004206168A0FB015003461920A9FB0070CA
:1037900001462A463846FCF725FD6421B0FBF1F0CE
:1037A00000EBC00101EB0010ABEB8000322101EB1C
:1037B00000106421B0FBF1F000F00F0050442168CC
:1037C0008860BDE8F88F000000100140001401403F
:1037D00010B5034699629A85DA8500205864222044
:1037E00083F84200186928B11868C06840F48070F6
:1037F0001C68E0601868406940F001001C68606166
:103800001868C06840F020001C68E060002010BD0F
:10381000014691F84100212828D18868B0F5805FE1
:103820000BD1086948B90A6A1088C0F308000B6810
:103830005860086A801C086205E00B6A581C086220
:1038400018780B685860C88C401E80B2C88458B97C
:103850000868C06820F080000B68D8600868C068FD
:1038600040F040000B68D860002070470220FCE761
:103870002DE9F84304460D4617469846089E31E068
:10388000701C70B3FDF70EFDA0EB0800B04200D82D
:1038900016B90320BDE8F8832068C06800F0040072
:1038A000F8B1802D1ED0402D1CD020680068C0F3D8
:1038B000C000B0B100BF00200090206800680090F8
:1038C00020684068009000BF00BF2046FFF7A6FDBB
:1038D0000820606400BF002084F8400000BF012081
:1038E000D8E7FFE7206800682840A84201D10120FE
:1038F00000E00020B842C3D00020CBE710B502485A
:10390000FEF79EFD10BD00007409002000BFFEE719
:10391000FEB505460E461446C4EB84170020CDE9DB
:103920000070C82340F6AC52314602902846FCF79E
:1039300098FD3220FDF79AFBFEBD000070B50446ED
:103940000D46012C38D1052201210846FFF7E0FF82
:103950003220FDF78BFB2946022000F0E4F84FF4FB
:103960007A60FDF783FB782031490968086440F2EA
:10397000EE20FDF77BFB322200210120FFF7C8FF7C
:1039800040F2DC50FDF772FB0421022000F096F8B3
:1039900040F6C410FDF76AFB322201210846FFF70A
:1039A000B7FF40F2DC50FDF761FB0120FCF78FFD13
:1039B0003220FDF75BFB3AE0022C38D105220021D2
:1039C0000320FFF7A5FF40F2EE20FDF74FFB29464D
:1039D000042000F0A8F84FF47A60FDF747FB5A2066
:1039E00013490968C86340F2EE20FDF73FFB32221D
:1039F00001210320FFF78CFF40F2DC50FDF736FB7E
:103A00000421084600F05AF840F6C410FDF72EFBDA
:103A1000322200210320FFF77BFF40F2DC50FDF74C
:103A200025FB0320FCF753FD3220FDF71FFB70BD83
:103A30007C06002010B50446012C1DD10121022076
:103A400000F03CF840F6B830FDF710FB1E220121D3
:103A50000846FFF75DFF4FF49660FDF707FB642013
:103A60001549096808640421022000F027F840F68F
:103A7000B830FDF7FBFA1EE0022C1CD10121042016
:103A800000F01CF840F6B830FDF7F0FA1E220021D5
:103A90000320FFF73DFF4FF49660FDF7E7FA78202B
:103AA00005490968C8630421084600F007F840F694
:103AB000B830FDF7DBFA10BD7C060020FEB50546E8
:103AC0000C460026012C01D140F69806022C01D1AB
:103AD0004FF4AF56032C01D142F22836042C01D109
:103AE00042F6F826022D0DD1002001217D2332223D
:103AF000CDE9006102902846FCF7B3FC3220FDF7C7
:103B0000B5FA0FE0042D0DD1002001217D233222D2
:103B1000CDE90061029001462846FCF7A2FC322064
:103B2000FDF7A4FAFEBDFEB505460C460026012CA5
:103B300001D140F69806022C01D14FF4AF56032C68
:103B400001D142F22836042C01D142F6F826022D8A
:103B50000DD1002001217D231922CDE900610290C1
:103B60002846FCF77EFC3220FDF780FA0FE0042D9A
:103B70000DD1002001217D231922CDE900610290A1
:103B800001462846FCF76DFC3220FDF76FFAFEBDBA
:103B900002480068C0F30220704700000CED00E00E
:103BA00010B5002804DB0A07130E054A135406E07B
:103BB0000A07140E034A00F00F031B1FD45410BD54
:103BC00000E400E018ED00E002E008C8121F08C1A0
:103BD000002AFAD170477047002001E001C1121F8E
:103BE000002AFBD17047000000B58BB0012009907E
:103BF000002007900120089000200190029003907F
:103C000004900690059001A90748FCF735FD064889
:103C1000FDF78BF902210448FCF773FC0E200A9093
:103C200006900BB000BD00005406002070B52DEDCD
:103C3000088B8CB040494148FCF77AFB4049414829
:103C4000FCF776FB40494148FCF772FB4048D0E95D
:103C500000128068CDE909120B903D490C31D1E981
:103C600000208968CDE906200891394A183207CA30
:103C700003AB07C3364A243207CA8DE80700002485
:103C800000254FF47A6008EE900A09EE100A4FF40E
:103C9000AF76304608EE100A400009EE900A0AEEB0
:103CA000100A9FED2C0AF0EE40AA9FED2B0AB0EE11
:103CB00040BAB8EEC91AF8EEE80AB0EE4B0A09A904
:103CC0001D48FFF747F9B8EEC81AF8EEC80AB0EE7B
:103CD0006A0A06A918484C30FFF73CF9B8EEC91A31
:103CE000F8EEE80AB0EE4B0A09A91548FFF732F9D9
:103CF000B8EEC81AF8EEC80AB0EE6A0A06A910486B
:103D00004C30FFF727F99FED151ADFED140AB0EEDE
:103D10004B0A03A90C48FFF71DF9B8EECA1AF8EED2
:103D2000E90AB0EE6A0A694607484C30FFF712F913
:103D30000CB0BDEC088B70BD580100209002002033
:103D4000F4010020C4030020BC000020F80400207F
:103D5000C44B000800401C450000000000007A45EC
:103D60004A42904205DA4A4200EE102AB8EEC00AF2
:103D70007047884204DD00EE101AB8EEC00AF7E77B
:103D800000EE100AB8EEC00AF2E700000EB5FDF72B
:103D90009BFAFFF717F9FEF7D7FEFEF7B3FEFEF723
:103DA000D9FFFEF7F3FFFFF70DF8FEF72DFFFEF743
:103DB00085FFFEF7A9FFFFF721F80C21FE48FEF76B
:103DC00099FA0821FC48FEF795FAFFF70DFFFFF777
:103DD0002DFF0122F949FA48FEF7ECFD0122F949CD
:103DE000F948FEF7E7FD0122F849F948FEF7E2FD40
:103DF00040F6B830FDF73AF97820EF4909680864D1
:103E00005A20ED490968C8634FF4FA70FDF72EF99E
:103E100004210220FFF752FE3220FDF727F904218A
:103E20000846FFF74BFE40F6B830FDF71FF9E948AA
:103E30000078002843D10CE01E2201210320FFF767
:103E400067FDE5480078401CE3490870A020FDF7B5
:103E50000DF9DC4800783128EED1DA4800783128B5
:103E60002DD10220FFF7E6FD0120DA490870DA487B
:103E700000781C280CDD0020D7490870C8220021DA
:103E80000320FFF745FD40F2DC50FDF7EFF813E0AB
:103E9000D14800780A280CDA0020CF49087078222F
:103EA00001210320FFF734FD40F2DC50FDF7DEF87E
:103EB00002E00020C84908703320C2490870C74892
:103EC0000078002879D131E00120FDF7CFF8C4480F
:103ED000B0F9020000EE900AF8EEE00AB0EE600AD7
:103EE000DFEDC00AC048FEF7A9FFBDEEC00ABF481B
:103EF00080ED000ABA48B0F9360100EE900AF8EEFB
:103F0000E00AB0EE600ADFEDBA0ABA48FEF796FFA3
:103F1000BDEEC00AB84880ED000A00231A460088AA
:103F200001B2B248008800B2FCF7DAF9A74800787D
:103F30003128C9D1A548007831283ED10120A749B0
:103F40000870AE48FDF71EFF31E00120FDF78EF846
:103F5000A348B0F9020000EE900AF8EEE00AB0EED5
:103F6000600ADFEDA70AA048FEF768FFBDEEC00AB1
:103F70009E4880ED000A9A48B0F9360100EE900A9A
:103F8000F8EEE00AB0EE600ADFED9D0A9948FEF710
:103F900055FFBDEEC00A984880ED000A00231A467E
:103FA000008801B29148008800B2FCF799F9954861
:103FB000006840F2DC518842C7D386480078012867
:103FC0003AD18E48FDF732FF00208E49086007E0A5
:103FD000142201210320FFF79BFC6420FDF746F823
:103FE000784800783228F3D176480078322823D1F7
:103FF000FDF73CF85A2070490968C8634FF4967081
:10400000FDF734F80F2201210320FFF781FC40F275
:10401000DC50FDF72BF802210846FFF78FFC022049
:104020006C49087040F2DC50FDF720F833206549F8
:1040300008707248FDF7A6FE6848007801287DD117
:1040400031E00120FDF712F86548B0F9020000EEFA
:10405000900AF8EEE00AB0EE600ADFED620A62480C
:10406000FEF7ECFEBDEEC00A604880ED000A5C4839
:10407000B0F9360100EE900AF8EEE00AB0EE600A00
:10408000DFED5B0A5B48FEF7D9FEBDEEC00A5A4879
:1040900080ED000A00231A46008801B253480088C8
:1040A00000B2FCF71DF957480068B0F5FA7FC8D395
:1040B0000020464908705148FDF7B8FE00205149DC
:1040C000086031E00120FCF7D1FF4548B0F902005B
:1040D00000EE900AF8EEE00AB0EE600ADFED410A69
:1040E0004148FEF7ABFEBDEEC00A404880ED000A35
:1040F0003B48B0F9360100EE900AF8EEE00AB0EE67
:10410000600ADFED3B0A3B48FEF798FEBDEEC00AB1
:10411000394880ED000A00231A46008801B233486E
:10412000008800B2FCF7DCF8284800783128C9D1B3
:1041300026480078312869D1022000E066E027494E
:1041400008702E48FDF71EFE31E00120FCF78EFFBF
:104150002348B0F9020000EE900AF8EEE00AB0EE53
:10416000600ADFED270A2048FEF768FEBDEEC00AB0
:104170001E4880ED000A1A48B0F9360100EE900A98
:10418000F8EEE00AB0EE600ADFED1D0A1948FEF70E
:1041900055FEBDEEC00A184880ED000A00231A46FD
:1041A000008801B21148008800B2FCF799F8154860
:1041B000006840F2DC5127E07C060020200000204F
:1041C0009C08002022000020E40800202400002099
:1041D000740900200D0000203D0000200F00002089
:1041E000900200200000FA43580100201400002033
:1041F0000000FAC3F401002018000020C4060020CB
:10420000000000004000002088429ED3FD48007856
:10421000022826D1FC48FDF709FE0020FB49086072
:104220000320F849087082220121FFF771FB322038
:10423000FCF71CFF4FF4F07200210120FFF768FB30
:10424000002040F22C42CDE90020AF234FF4FA7257
:10425000012102900520FCF704F94FF47A60FCF785
:1042600005FFEB48007802284CD10CE01E2200210B
:104270000320FFF74DFBE7480078401CE549087034
:10428000A020FCF7F3FEE44800783128EED1E248A4
:104290000078312836D11E2201210320FFF738FB98
:1042A00040F2DC50FCF7E2FE0220FFF7C3FB0320E4
:1042B000D7490870D74800781C280CDD0020D54964
:1042C0000870C82201210320FFF722FB40F2DC50D6
:1042D000FCF7CCFE13E0CF4800780A280CDA002067
:1042E000CC490870962200210320FFF711FB40F211
:1042F000DC50FCF7BBFE02E00020C649087033200A
:10430000C5490870C5480078A8BB0CE01E220121F1
:104310000846FFF7FDFABF480078401CBD49087009
:10432000A020FCF7A3FEBE4800783128EED1BC489F
:104330000078312837D11E2200210120FFF7E8FA4A
:1043400040F2DC50FCF792FE0120FFF773FB0120E6
:10435000B2490870AF4800781C280DDD0020AD4937
:104360000870C82200210120FFF7D2FA40F2DC5089
:10437000FCF77CFE14E016E0A64800780A280CDA68
:104380000020A4490870962201210846FFF7C0FAD0
:1043900040F2DC50FCF76AFE02E000209D49087004
:1043A00033209F49087097480078032816D10420CD
:1043B00094490870002040F21622CDE90020AF2376
:1043C0004FF4FA72012102900520FCF74AF84FF4ED
:1043D0007A60FCF74BFE8C48FDF7D4FC89480078E6
:1043E00004287CD131E00120FCF740FE8D48B0F973
:1043F000020000EE900AF8EEE00AB0EE600A5FED0F
:10440000870A8948FEF71AFDBDEEC00A874880ED8D
:10441000000A8448B0F9360100EE900AF8EEE00A8E
:10442000B0EE600A5FED8E0A8148FEF707FDBDEE33
:10443000C00A804880ED000A00231A46008801B2B5
:104440007A48008800B2FBF74BFF7048006841F2E1
:104450008B718842C7D331E00120FCF707FE714819
:10446000B0F9020000EE900AF8EEE00AB0EE600A41
:104470005FED9D0A6C48FEF7E1FCBDEEC00A6B489B
:1044800080ED000A6748B0F9360100EE900AF8EEB8
:10449000E00AB0EE600A5FEDA60A6548FEF7CEFCC2
:1044A000BDEEC00A634880ED000A00231A4600886A
:1044B00001B25E48008800B2FBF712FF5348006863
:1044C00041F22771884205D35048006841F60F3108
:1044D0008842C1D30020584908704B4800E007E0EB
:1044E000FDF7A4FC002049490860052045490870F3
:1044F00033204B4908704849087045480078032824
:104500002BD107E0192201210320FFF701FAB42083
:10451000FCF7ACFD404800783228F3D13E480078E3
:1045200032281AD15A2045490968C8634FF4967059
:10453000FCF79CFD0F2201210320FFF7E9F940F26F
:10454000DC50FCF793FD03210220FFF7F7F904206C
:104550002F4908703320304908703048007801280E
:104560002BD107E0192200210120FFF7D1F9B42057
:10457000FCF77CFD2A4800783228F3D128480078DF
:1045800032281AD178202D49096808644FF49670B2
:10459000FCF76CFD0F2200210120FFF7B9F940F272
:1045A000DC50FCF763FD03210120FFF7C7F902206F
:1045B0001A49087033201A490870124800780528F3
:1045C0007ED150E00120FCF751FD1648B0F9020001
:1045D00000EE900AF8EEE00AB0EE600A5FEDFC0A29
:1045E0001148FEF72BFCBDEEC00A104880ED000A12
:1045F0000C48B0F9360100EE900AF8EEE00AB0EE91
:10460000600A1DE00F000020C406002040000020CA
:104610000D0000203D000020220000200E000020A0
:1046200020000020900200205801002014000020EB
:10463000F401002018000020240000207C06002047
:10464000DFEDFE0AFE48FEF7F9FBBDEEC00AFD48AD
:1046500080ED000A00231A46008801B2FA4800885B
:1046600000B2FBF73DFEF94800783128AAD1F7489F
:104670000078312840D10620F5490870F548FDF74B
:1046800081FB33E00120FCF7F1FCF348B0F90200B4
:1046900000EE900AF8EEE00AB0EE600ADFEDEF0AF5
:1046A000EF48FEF7CBFBBDEEC00AE74880ED000AFD
:1046B000E948B0F9360100EE900AF8EEE00A00E0B1
:1046C0001AE0B0EE600ADFEDE50ADD48FEF7B6FB62
:1046D000BDEEC00ADB4880ED000A00231A460088C0
:1046E00001B2D948008800B2FBF7FAFDDD48006846
:1046F00040F2DC518842C5D3D5480078062819D14C
:10470000D448FDF793FB0020D64908600720D04924
:104710000870002040F21622CDE90020AF234FF4AC
:10472000FA72012102900520FBF79BFE4FF47A609C
:10473000FCF79CFCCC48007804284CD10CE01E22ED
:1047400000210320FFF7E4F8C8480078401CC7495F
:104750000870A020FCF78AFCC54800783128EED10B
:10476000C3480078312836D11E2201210320FFF7EB
:10477000CFF840F2DC50FCF779FC0220FFF75AF941
:104780000520B9490870B94800781C280CDD0020C4
:10479000B6490870C82201210320FFF7B9F840F29A
:1047A000DC50FCF763FC13E0B04800780A280CDA10
:1047B0000020AE490870962200210320FFF7A8F8D8
:1047C00040F2DC50FCF752FC02E00020A7490870E0
:1047D0003320A7490870A748007802284CD10CE084
:1047E0001E2201210846FFF793F8A0480078401CDC
:1047F0009E490870A020FCF739FC9F4800783128BA
:10480000EED19D480078312836D11E2200210120AA
:10481000FFF77EF840F2DC50FCF728FC0120FFF7A0
:1048200009F9032093490870904800781C280CDD92
:1048300000208E490870C82200210120FFF768F887
:1048400040F2DC50FCF712FC13E0884800780A289C
:104850000CDA002085490870962201210846FFF7EE
:1048600057F840F2DC50FCF701FC02E000207F49E1
:10487000087033208049087075480078072816D1E1
:10488000082073490870002040F21622CDE900206C
:10489000AF234FF4FA72014602900520FBF7E1FDC9
:1048A0004FF47A60FCF7E2FB6A48FDF76BFA684860
:1048B000007808287ED131E00120FCF7D7FB66485C
:1048C000B0F9020000EE900AF8EEE00AB0EE600ADD
:1048D000DFED6A0A6248FEF7B1FABDEEC00A5A4837
:1048E00080ED000A5C48B0F9360100EE900AF8EE5F
:1048F000E00AB0EE600ADFED620A5148FEF79EFA68
:10490000BDEEC00A4F4880ED000A00231A46008819
:1049100001B24D48008800B2FBF7E2FC5148006844
:10492000B0F57A6FC8D30020484908704948FDF7B0
:104930007DFA00204B49086031E00120FCF796FB2E
:104940004548B0F9020000EE900AF8EEE00AB0EE39
:10495000600ADFED4C0A4248FEF770FABDEEC00A6D
:10496000394880ED000A3C48B0F9360100EE900A63
:10497000F8EEE00AB0EE600ADFED300A3048FEF7EC
:104980005DFABDEEC00A2F4880ED000A00231A46EA
:10499000008801B22C48008800B2FBF7A1FC2B482C
:1049A00000783128C9D12948007831286DD10920F3
:1049B000274900E069E008702648FDF7E3F931E097
:1049C0000120FCF753FB2448B0F9020000EE900AE6
:1049D000F8EEE00AB0EE600ADFED200A2048FEF7AC
:1049E0002DFABDEEC00A184880ED000A1A48B0F949
:1049F000360100EE900AF8EEE00AB0EE600ADFED54
:104A0000170A0F48FEF71AFABDEEC00A0D4880EDEE
:104A1000000A00231A46008801B20B48008800B241
:104A2000FBF75EFC0F48006840F2DC518842C7D3B8
:104A30000848FDF7FBF900200A4925E00000FA4389
:104A4000F4010020180000201400002024000020A1
:104A50000F000020C406002090020020000000008B
:104A600058010020400000200D0000203D000020E3
:104A7000220000200E0000202000002000007AC448
:104A800000007A440000FAC30860332030490870FF
:104A90003049087030480078052827D107E01922EE
:104AA00001210320FEF734FFB420FCF7DFFA294888
:104AB00000783228F3D127480078322816D15A20BE
:104AC00026490968C8630F2201210320FEF720FF51
:104AD00040F2DC50FCF7CAFA03210220FEF72EFF59
:104AE00006201D49087033201A4908701C480078B8
:104AF00003282BD107E0192200210120FEF708FF2F
:104B0000B420FCF7B3FA124800783228F3D11048E9
:104B1000007832281AD178201049096808644FF4C7
:104B20009670FCF7A3FA0F2201210320FEF7F0FE96
:104B300040F2DC50FCF79AFA03210120FEF7FEFE5A
:104B400004200749087033200149087000BFFEE7C0
:104B500020000020220000200D0000207C06002004
:104B60000E00002038B50446E0B200906423012214
:104B700069460248FDF764FF38BD00002C0900209B
:104B800038B504460D4600200090009009E09DF8DD
:104B90000010605CFFF7E6FF9DF80000401CC0B20B
:104BA00000909DF80000A842F1DB38BD0000000035
:104BB00000000000010203040607080900000000CD
:104BC000010203040000E041CDCCCC3E0000000017
:104BD0000000E041000000000AD7233C0000A04193
:104BE000EC51383D0000000000002C4200000000A5
:104BF0000000003F144C0008000000205C00000092
:104C0000C83B0008704C00085C000020640D0000E8
:104C1000D83B000800000000000000000000000079
:104C20000000000000000000000000000000000084
:104C300000000000000000000000120012002A0026
:104C40002A003C003C003A003A008100810000004C
:104C50000000000000000000000000000000000054
:104C600010000000010000000024F400010000001A
:04000005080001AD41
:00000001FF
