:020000040800F2
:10000000C8080020C1010008912100081D1F000838
:100010008D210008CD020008A12800080000000082
:10002000000000000000000000000000DF220008C7
:100030003103000800000000DD220008E122000872
:10004000DB010008DB010008DB010008DB01000820
:10005000DB010008DB010008DB010008DB01000810
:10006000DB010008DB010008DB010008DB01000800
:10007000DB010008DB010008DB010008DB010008F0
:10008000DB010008DB010008DB010008DB010008E0
:10009000D1020008DB010008DB010008DB010008D9
:1000A000DB010008DB010008DB010008DB010008C0
:1000B000DB010008DB010008DB010008DB010008B0
:1000C000DB010008DB010008DB010008DB010008A0
:1000D000DB010008DB010008DB010008DB01000890
:1000E000DB010008DB010008DB010008DB01000880
:1000F000DB010008DB010008DB010008DB01000870
:10010000DB010008DB010008DB010008DB0100085F
:10011000DB010008DB010008DB010008DB0100084F
:10012000DB010008DB010008DB010008DB0100083F
:10013000DB010008DB010008DB010008DB0100082F
:10014000DB010008DB010008DB010008DB0100081F
:10015000DB010008DB010008DB010008DB0100080F
:10016000DB010008DB010008DB010008DB010008FF
:10017000DB010008DB010008DB01000800000000D3
:10018000DB010008DB010008DB010008DB010008DF
:10019000DB010008DB010008DB010008DB010008CF
:1001A0000000000000000000DB010008DFF80CD0B8
:1001B00000F07AF800480047FD290008C808002030
:1001C0000648804706480047FEE7FEE7FEE7FEE7F1
:1001D000FEE7FEE7FEE7FEE7FEE7FEE79D230008F9
:1001E000AD0100082DE9F05F0546002092469B46D0
:1001F00088460646814640241BE02846414647463D
:10020000224600F041F853465A46C01A914110D395
:1002100011461846224600F028F82D1A67EB01080F
:100220004F4622460120002100F01FF817EB00097D
:100230004E41201EA4F10104DFDC484631462A4627
:100240004346BDE8F09FD2B201E000F8012B491E01
:10025000FBD270470022F6E710B513460A46044663
:100260001946FFF7F0FF204610BD202A04DB203A94
:1002700000FA02F1002070479140C2F1200320FAF9
:1002800003F3194390407047202A04DB203A21FAF7
:1002900002F00021704721FA02F3D040C2F120029F
:1002A0009140084319467047064C074D06E0E06848
:1002B00040F0010394E8070098471034AC42F6D3AD
:1002C000FFF778FFD02A0008F02A000800BFFEE7F9
:1002D00010B5024800F047FA10BD000020020020CF
:1002E000F8B507460C4615461E464FF400700D49FA
:1002F000086000208860C86008200861380A0A4940
:1003000008704F70200A8870CC70280A08714D71EF
:10031000300A8871CE716B460A460249034800F0E4
:1003200020F8F8BDB00400201000002020020020BA
:10033000704772B600BFFEE710B5024692F8203053
:10034000012B01D0022B06D11068406908431468C4
:100350006061002010BD506A40F48020506201208E
:10036000F8E7F0B504460D461E4694F82070206864
:100370008368A86800B900E000BF012F01D0022FF8
:100380007DD103F0806030B903F0006018B903F04C
:10039000805000287ED0C3F3016101208840306086
:1003A000A86860B9B5F800C0E86840EA4C5C20680D
:1003B00000F5C07000EB0110C0F800C00FE0D5E9F7
:1003C00001C040EACC00D5F80CC040EA0C00D4F8DB
:1003D00000C00CF5C07C0CEB011CCCF80000D5F87B
:1003E00010C0206800F5C07000EB0110C0F804C018
:1003F000287D01280ED1206800F5C07000EB0110A7
:10040000406840F4807C206800F5C07000EB01106B
:10041000C0F804C0D079000692F806C040EA0C404B
:1004200092F805C040EA0C2092F804C040EA0C00A3
:10043000D4F800C00CF5C07C0CEB011CCCF80C000F
:10044000D078000692F802C040EA0C4092F801C051
:1004500040EA0C2092F800C040EA0C00D4F800C03A
:100460000CF5C07C0CEB011CCCF80800206800F5F2
:10047000C07000EB0110006840F0010C01E00FE0DB
:1004800008E0206800F5C07000EB0110C0F800C063
:100490000020F0BD606A40F4001060620120F8E7BF
:1004A000606A40F4802060620120F2E7F0B5044603
:1004B0000A46216894F82050012D01D0022D7ED1EA
:1004C000424901F50071086840F0010008600868C1
:1004D00020F47C5008600868566A40EA06200860EC
:1004E000107D00F01F06012000FA06F3C86998434A
:1004F000C861A1F50071D069C8B9D1F80C02984360
:10050000C1F80C02908880B2968940EA064601F54F
:100510001070576940F83760108880B2168940EA39
:10052000064601F51070576900EBC7004660D069B8
:10053000012819D1D1F80C021843C1F80C02908897
:1005400080B2168840EA064601F51070576940F8F7
:100550003760908980B2168940EA064601F510702E
:10056000576900EBC7004660906928B9D1F80402CA
:100570009843C1F8040204E0D1F804021843C1F81A
:100580000402106928B9D1F814029843C1F8140282
:1005900004E0D1F814021843C1F81402106A0128CB
:1005A00004D1D1F81C021843C1F81C02D1F8000292
:1005B00020F00100C1F800020020F0BDFFE7606AF2
:1005C00040F4802060620120F7E7000000640040F2
:1005D000704770B5044694F82050012D01D0022DCB
:1005E0007DD151B92068C06800F0030080B9606A0D
:1005F00040F400106062012070BD2068006900F0C6
:10060000030028B9606A40F4001060620120F3E73B
:10061000206800F5D87000EB0110006800F00400BD
:100620009060906840B9206800F5D87000EB011028
:100630000068400D106007E0206800F5D87000EBFE
:1006400001100068C0085060206800F5D87000EB09
:100650000110006800F00200D060206800F5D8703A
:1006600000EB0110406800F00F00082802D30820BA
:10067000106108E0206800F5D87000EB01104068B8
:1006800000F00F001061206800F5D87000EB011039
:10069000406800F47F40000A9061206800F5D8703F
:1006A00000EB01104068000C5061206800F5D87024
:1006B00000EB011080681870206800F5D87000EB1E
:1006C0000110806800F47F40000A5870206800F52F
:1006D000D87000EB0110806800F47F0000E03CE07F
:1006E000000C9870206800F5D87000EB011080684D
:1006F000000ED870206800F5D87000EB0110C068BB
:100700001871206800F5D87000EB0110C06800F483
:100710007F40000A5871206800F5D87000EB011086
:10072000C06800F47F00000C9871206800F5D87054
:1007300000EB0110C068000ED87131B92068C068A4
:1007400040F020002668F06005E02068006940F075
:1007500020002668306100204EE7606A40F4802067
:100760006062012048E72DE9F05F0446002520681B
:1007700046692068D0F80490206887682068D0F81F
:100780000CA02068D0F810B02068D0F8188006F0CF
:100790000100002855D007F00100C0B101202168F8
:1007A000886007F0020018B1204600F0FEFA0EE063
:1007B00007F0040010B145F4006508E007F00800F8
:1007C00010B145F4805502E0204600F0EDFA07F440
:1007D0008070C8B14FF480702168886007F40070A1
:1007E00018B1204600F0E3FA0EE007F4806010B183
:1007F00045F4005508E007F4006010B145F4804569
:1008000002E0204600F0D2FA07F48030C8B14FF47D
:1008100080302168886007F4003018B1204600F06D
:10082000C8FA0EE007F4802010B145F4004508E056
:1008300007F4002010B145F4803502E0204600F0B6
:10084000B7FA06F0080038B10AF0100020B145F4FC
:10085000007510202168C86006F0040040B10AF05D
:10086000080028B108202168C860204600F0A8F9D7
:1008700006F0020038B12068C06800F0030010B133
:10088000204600F09FF906F0400038B10BF0100050
:1008900020B145F4806510202168086106F0200031
:1008A00040B10BF0080028B10820216808612046FB
:1008B00000F048FA06F0100038B12068006900F036
:1008C000030010B1204600F03EFA06F4003040B1BB
:1008D00009F0100028B1102021684860204600F07F
:1008E00033FA06F4803040B109F0080028B108203E
:1008F00021684860204600F05DFA06F4004088B3A5
:1009000009F0040078B306F4807020B108F001000B
:1009100008B145F0010506F4007020B108F00200AE
:1009200008B145F0020506F4806020B108F004002B
:1009300008B145F0040506F40060A0B108F07000AD
:1009400088B108F07000402817D006DC10280BD0C2
:1009500020280CD0302819D10CE0502810D0602865
:1009600014D110E01DE019E045F008050FE045F056
:1009700010050CE045F0200509E045F0400506E0D3
:1009800045F0800503E045F4807500E000BF00BF3E
:100990002068806920F07000216888610420216847
:1009A00048602DB1606A284360622046FFF710FE60
:1009B000BDE8F09F70B504460CB9012070BD94F8F5
:1009C000200010B9204600F0AFF82068006840F021
:1009D00001002168086000F00BFB05460DE000F007
:1009E00007FB401B0A2808D9606A40F400306062A7
:1009F000052084F820000120E0E72068406800F02E
:100A000001000028EBD02068006820F00200216877
:100A1000086000F0EDFA05460DE000F0E9FA401B31
:100A20000A2808D9606A40F400306062052084F822
:100A300020000120C2E72068406800F00200002882
:100A4000EBD1207E012806D12068006840F08000AC
:100A50002168086005E02068006820F080002168B7
:100A60000860607E012806D12068006840F04000E0
:100A70002168086005E02068006820F040002168D7
:100A80000860A07E012806D12068006840F02000A0
:100A90002168086005E02068006820F020002168D7
:100AA0000860E07E012806D12068006820F0100070
:100AB0002168086005E02068006840F010002168A7
:100AC0000860207F012806D12068006840F00800F7
:100AD0002168086005E02068006820F008002168AF
:100AE0000860607F012806D12068006840F004009B
:100AF0002168086005E02068006820F00400216893
:100B00000860D4E902010843216908436169084388
:100B10006168491E08432168C861002060620120A5
:100B200084F82000002049E710B586B0044614215F
:100B300001A8FFF78FFB1F492068884237D100BF0B
:100B4000002000901C48006840F000701A490860BE
:100B50000846006800F00070009000BF00BF00BFB2
:100B60000020009014481038006840F00800124936
:100B7000103908600846006800F00800009000BFC7
:100B800000BF032001900220029000200390032068
:100B900004900920059001A9084800F021F90022DD
:100BA0001146142000F0B2FA142000F09BFA06B0AF
:100BB00010BD00000064004040380240000C0240BC
:100BC0007047000010B58AB0044601AB03AA0021AB
:100BD0002046FFF7FEFC0398A0F2012007287CD2F4
:100BE000DFE800F00405060708090A0000BF00BF9F
:100BF00000BF00BF00BF00BF0398401E4E490870F1
:100C00000846007800EB800101EB40104B4931F8B9
:100C1000200000B24849097801EB810202EB411142
:100C2000464A02EB810108819DF805009DF80410F9
:100C300040EA01204049097801EB810202EB4111B1
:100C40003E4A22F821009DF807009DF8061040EA70
:100C5000012000B23849097801EB810202EB411111
:100C6000364A02EB810148809DF809009DF8081082
:100C700040EA012000B23049097801EB810202EB21
:100C800041112E4A02EB810188809DF80A002A4911
:100C9000097801EB810202EB4111284A02EB810144
:100CA00088712548007800EB800101EB4010114667
:100CB00031F820002049097801EB810202EB411153
:100CC0001E4A02EB8101B1F90810401A142819DC00
:100CD0001948007800EB800100E028E001EB4010AB
:100CE000114631F820001449097801EB810202EB2A
:100CF0004111124A02EB8101B1F90810401A10F1BA
:100D0000140F04DA0E480088401C0D4908800C4876
:100D10000088132190FBF1F00749097801EB81026B
:100D200002EB4111054A02EB8101488100E000BF5E
:100D300000BF0AB010BD0000180000201C000020F9
:100D40001A00002070477047704770B5044694F849
:100D50002000012822D1022084F8200020680068A9
:100D600020F001002168086000F042F905460DE01E
:100D700000F03EF9401B0A2808D9606A40F40030B0
:100D80006062052084F82000012070BD2068406862
:100D900000F001000028EBD16062F6E7606A40F4E1
:100DA000002060620120F0E770477047704770478D
:100DB000704770477047000070B5044600F018F99E
:100DC00006462546681C10B104480078054400BF5B
:100DD00000F00EF9801BA842FAD370BD0800002075
:100DE000F8B502460B460025002400200021E0E073
:100DF000012606FA01F51E6806EA0504AC4274D124
:100E00001E7906F00306012E04D01E7906F00306B3
:100E1000022E13D190684F000326BE40B0434F000E
:100E2000DE68BE4030439060506801268E40B0437B
:100E30001E79C6F300168E40304350601E7906F0CE
:100E40000306032E09D0D0684F000326BE40B043EE
:100E50004F009E68BE403043D0601E7906F0030606
:100E6000022E13D1CF0802F1200656F827004E07B4
:100E7000F70E0F26BE40B0434F07FF0E1E69BE405F
:100E80003043CF0802F1200646F8270010684F00D3
:100E90000326BE40B0431E7906F003064F00BE4055
:100EA000304310605E6806F44036002E1DD000BF4F
:100EB00000260096414E366846F480463F4F3E601D
:100EC0003E46366806F48046009600BF00BF3C4EA2
:100ED0008F0856F827008E07370F0F26BE40B04305
:100EE000384EB24202D100262EE061E0364EB242C8
:100EF00001D1012628E0354EB24201D1022623E07D
:100F0000334EB24201D103261EE0324EB24201D12D
:100F1000042619E0304EB24201D1052614E02F4ECE
:100F2000B24201D106260FE02D4EB24201D1072672
:100F30000AE02C4EB24201D1082605E02A4EB24208
:100F400001D1092600E00A268F073F0FBE4030433B
:100F50001B4E8F0846F82700244E3068A0435E6879
:100F600006F4801606B12043204E3060361D3068EE
:100F7000A0435E6806F4001606B120431B4E361DE2
:100F800030601A4E361F3068A0435E6806F40036A3
:100F900006B12043154E361F3060361F3068A0431F
:100FA0005E6806F4803606B12043104E083E30607D
:100FB000491C1029FFF41CAFF8BD00004438024062
:100FC00008380140000002400004024000080240CE
:100FD000000C0240001002400014024000180240C1
:100FE000001C02400020024000240240083C014056
:100FF00001480068704700000000002003480068B6
:10100000034909780844014908607047000000203E
:101010000800002010B50D48006840F400700B492E
:1010200008600846006840F4806008600846006870
:1010300040F480700860032000F0A6F80F2000F054
:1010400007F800F02BF8002010BD0000003C024023
:1010500070B504460E4800784FF47A71B1FBF0F099
:101060000C490968B1FBF0F5284600F02FFC08B1E7
:10107000012070BD102C07D200222146501E00F026
:1010800045F80548046001E00120F2E70020F0E7A0
:10109000080000200C0000200400002008B500BF5C
:1010A000002000900E48006840F480400C49086021
:1010B0000846006800F48040009000BF00BF00BFF9
:1010C00000200090081F006840F08050091F086051
:1010D0000846006800F08050009000BF00BF08BDC7
:1010E000443802400146084600280DDB00BF00BF1F
:1010F00000F01F0301229A4043099B0003F1E02303
:10110000C3F8002100BF00BF00BF70472DE9F05FAA
:1011100080460D461646002701F0C4FB07463946B7
:101120002A46334601F00700C0F1070ABAF1040F5E
:1011300002D94FF0040A01E0C0F1070AD14600F1DC
:10114000040ABAF1070F02D24FF0000A01E0A0F141
:10115000030AD4464FF0010A0AFA09FAAAF1010A71
:101160000AEA020A0AFA0CFA4FF0010B0BFA0CFB1E
:10117000ABF1010B0BEA030B4AEA0B042146404694
:1011800001F098FBBDE8F09F00BF00F00702064B9E
:1011900019684FF6FF031940044B0B4343EA022141
:1011A000014B196000BF70470CED00E00000FA052C
:1011B00070B504460D460CB9012070BD5848006852
:1011C00000F00F00A84209D255490D70084600688A
:1011D00000F00F00A84201D00120EEE7207800F0D7
:1011E000020002281DD1207800F00400042805D157
:1011F0004C48006840F4E0504A490860207800F00C
:101200000800082805D14748006840F46040454977
:1012100008604448006820F0F000A1680843414994
:101220000860207800F00100A8B36068012807D1A9
:101230003C4808380068C0F34040B8B90120BCE71A
:101240006068022802D06068032807D13548083852
:101250000068C0F3406048B90120AEE73148083863
:101260000068C0F3400008B90120A6E72D480068D7
:1012700020F00300616808432A490860FFF7B8FEC0
:10128000064609E0FFF7B4FE801B41F28831884230
:1012900002D9032091E707E02248006800F00C0023
:1012A0006168B0EB810FEDD11D48006800F00F00C0
:1012B000A84209D91A490D700846006800F00F00CD
:1012C000A84201D0012078E7207800F0040004282B
:1012D00007D11448006820F4E050E1680843114940
:1012E0000860207800F00800082808D10D48006840
:1012F00020F46040216940EAC1000A49086000F01A
:101300003FF808490968C1F30311074A515CC84016
:101310000649086006480068FFF79AFE00204CE77F
:10132000003C024008380240A02A00080C000020BF
:101330000400002001480068704700000C000020F5
:1013400000B5FFF7F7FF04490968C1F38221034A9A
:10135000515CC84000BD000008380240B02A0008B7
:1013600000B5FFF7E7FF04490968C1F34231034ABA
:10137000515CC84000BD000008380240B02A000897
:101380002DE9F047002400250026A14625480068E5
:1013900000F00C0020B1042805D008283AD105E05F
:1013A000DFF8849039E0DFF8849036E01D48001FB4
:1013B000006800F03F041B48001F006800F4800034
:1013C00078B11A481749091F0968C1F38811A0FBB1
:1013D00001700146224600233846FEF703FF05460A
:1013E0000EE011480F49091F0968C1F38811A0FBDD
:1013F00001700146224600233846FEF7F3FE0546FB
:101400000848001F0068C0F30140401C4600B5FBBF
:10141000F6F902E0DFF8109000BF00BF4846BDE8D3
:10142000F0870000083802400024F400001BB700D9
:10143000F8B504460CB90120F8BD207800F0010091
:10144000002874D0F948006800F00C0004280DD082
:10145000F648006800F00C00082813D1F348001F7C
:10146000006800F48000B0F5800F0BD1EF48083819
:101470000068C0F34040002859D06068002856D169
:101480000120D9E700BF6068B0F5803F08D1E74888
:101490000838006840F48030E449083908601EE0EC
:1014A0006068B0F5A02F0DD1E0480838006840F41E
:1014B0008020DE49083908600846006840F4803022
:1014C00008600CE0D9480838006820F48030D7491B
:1014D000083908600846006820F48020086000BFD2
:1014E000606890B1FFF784FD054606E0FFF780FDD8
:1014F000401B642801D903209EE7CC4808380068C7
:10150000C0F340400028F1D011E0FFF771FD05461F
:1015100006E0FFF76DFD401B642801D903208BE72F
:10152000C24808380068C0F340400028F1D1207854
:1015300000F0020002285FD1BC48006800F00C00F7
:1015400058B1BA48006800F00C0008281CD1B74810
:10155000001F006800F48000B0B9B4480838006883
:10156000C0F3400020B1E068012801D0012063E70A
:10157000AE480838006820F0F800216940EAC10050
:10158000AA490839086037E0E06800B30120A8499B
:101590000860FFF72DFD054606E0FFF729FD401B1B
:1015A000022801D9032047E7A04808380068C0F3A3
:1015B00040000028F1D09D480838006820F0F8006D
:1015C000216940EAC10099490839086014E0002007
:1015D00097490860FFF70CFD054606E0FFF708FD98
:1015E000401B022801D9032026E7904808380068EC
:1015F000C0F340000028F1D1207800F0080008284E
:101600002CD16069A8B101208A490860FFF7F0FC7D
:10161000054606E0FFF7ECFC401B022801D9032039
:101620000AE782486C300068C0F340000028F1D01F
:1016300014E000207F490860FFF7DAFC054606E069
:10164000FFF7D6FC401B022801D90320F4E67748B7
:101650006C300068C0F340000028F1D1207800F021
:101660000400042870D1002770483830006800F06A
:10167000805090B900BF002000906C48383000685E
:1016800040F080506949383108600846006800F031
:101690008050009000BF00BF01276748006800F439
:1016A0008070B0B96448006840F480706249086096
:1016B000FFF79EFC054606E0FFF79AFC401B022858
:1016C00001D90320B8E65C48006800F48070002867
:1016D000F2D000BFA068012808D1544868300068E3
:1016E00040F001005149683108601DE0A0680528FC
:1016F0000DD14E486830006840F004004B49683115
:1017000008600846006840F0010008600CE04748A7
:101710006830006820F001004449683108600846DC
:10172000006820F00400086000BFA068A8B1FFF7BF
:101730005FFC054609E0FFF75BFC401B41F2883186
:10174000884202D9032077E626E0384868300068EE
:10175000C0F340000028EED013E0FFF749FC054637
:1017600008E0FFF745FC401B41F28831884201D96F
:10177000032061E62D4868300068C0F3400000286F
:10178000EFD1012F07D129483830006820F0805070
:1017900026493831086000BFA069002845D0234899
:1017A000006800F00C0008285DD0A069022845D12F
:1017B00000201F490866FFF71BFC054606E0FFF7FF
:1017C00017FC401B022801D9032035E617480838CA
:1017D0000068C0F340600028F1D1D4E90701084354
:1017E000616A40EA81110122A06AC2EB500041EA1D
:1017F00000412C20005D41EA00600C49091F08608F
:1018000001200B490866FFF7F3FB054606E0FFF7EA
:10181000EFFB401B022801D903200DE603480838DE
:101820000068C0F340600028F1D049E00838024069
:1018300000004742800E47420070004000202149CE
:101840000866FFF7D5FB054606E0FFF7D1FB401B16
:10185000022801D90320EFE51B480068C0F340606F
:101860000028F2D12CE0A069012800D1E4E5164857
:10187000001D0668A069012820D006F48001E069F7
:1018800081421BD106F03F01206A814216D147F602
:10189000C0703040616AB0EB811F0FD106F4403157
:1018A0000122A06AC2EB5000B1EB004F06D106F056
:1018B00070612C20005DB1EB006F01D00120BBE511
:1018C0000020B9E5000047420038024070B50446E8
:1018D0002546681EB0F1807F01D301200FE0681E0D
:1018E0004FF0E02148610F214FF0FF3000F0E2FFA0
:1018F00000204FF0E021886107200861002070BDC2
:1019000010B50346002200BF93F83C00012801D126
:10191000022010BD012083F83C0000BF22F0FF0030
:10192000CC6840EA040222F440708C6840EA040269
:1019300022F480604C6840EA040222F400600C68E3
:1019400040EA040222F480500C6940EA040222F4C6
:1019500000504C6940EA040222F48040CC6940EA1D
:1019600004021868426400BF002083F83C0000BFF6
:1019700000BFCEE730B502460B4600BF92F83C00F0
:10198000012801D1022030BD012082F83C0000BFB7
:10199000022082F83D00106844681068816824F0D5
:1019A00070041868044310684460184D1068A84219
:1019B0001BD01068B0F1804F17D0154D1068A842A9
:1019C00013D0144D1068A8420FD0134D1068A842D0
:1019D0000BD0124D1068A84207D0114D1068A842D4
:1019E00003D0104D1068A84205D121F0800158683D
:1019F000014310688160012082F83D0000BF002093
:101A000082F83C0000BF00BFBDE7000000000140BD
:101A10000004004000080040000C004000040140A9
:101A2000004001400018004010B586B00446142163
:101A300001A8FEF70FFC1249206888421DD100BFA3
:101A4000002000900F48006840F001000D49086038
:101A50000846006800F00100009000BF00BF4FF48E
:101A60004070019002200290002003900490012019
:101A7000059001A90448FFF7B3F906B010BD0000B6
:101A80000000014030380240000002402DE9F041E2
:101A900004460D461646002700BF94F83C00012876
:101AA00002D10220BDE8F081012084F83C0000BF93
:101AB00036B1042E1BD0082E31D00C2E5ED145E05D
:101AC0002946206800F0FAFC2068806940F0080090
:101AD000216888612068806920F00400216888619D
:101AE00020688069296908432168886148E029469F
:101AF000206800F01BFD2068806940F400602168C8
:101B000088612068806920F480602168886120688D
:101B10008069296940EA01202168886130E029460E
:101B2000206800F041FD2068C06940F0080021688D
:101B3000C8612068C06920F004002168C86120687D
:101B4000C069296908432168C86119E029462068ED
:101B500000F066FD2068C06940F400602168C8613B
:101B60002068C06920F480602168C8612068C0696D
:101B7000296940EA01202168C86101E0012700BF0E
:101B800000BF00BF002084F83C0000BF384689E752
:101B900010B504460CB9012010BD94F83D0028B9D9
:101BA000002084F83C00204600F026F8022084F84B
:101BB0003D00211D206800F0FBFB012084F8460059
:101BC00000BF84F83E0001213F200155402001550F
:101BD0004120015500BF00BF012084F8420043208E
:101BE0000155442001554520015500BF012084F8CE
:101BF0003D000020D0E7000008B50A4A0168914284
:101C00000FD100BF002100910749096841F001018F
:101C1000054A11601146096801F00101009100BFF9
:101C200000BF08BD000001404438024070B50446C2
:101C30000D4615B994F83E000BE0042D02D13F206B
:101C4000005D06E0082D02D14020005D01E041204A
:101C5000005D012801D0012070BD1DB9022084F86B
:101C60003E000EE0042D03D102213F20015508E083
:101C7000082D03D102214020015502E0022141201C
:101C8000015501222946206800F006FC23492068FE
:101C9000884203D022492068884201D1012000E017
:101CA000002028B12068406C40F40040216848645E
:101CB0001A49206888421BD02068B0F1804F17D0A5
:101CC00018492068884213D01749206888420FD0ED
:101CD0001649206888420BD011492068884207D0F5
:101CE00013492068884203D01249206888420CD1E9
:101CF0002068806800F00706062E0CD02068006877
:101D000040F001002168086005E02068006840F0AC
:101D100001002168086000209EE7000000000140EB
:101D2000000401400004004000080040000C004096
:101D3000004001400018004010B504460CB90120D5
:101D400010BDA06900B100E000BF94F8410028B9BF
:101D5000002084F84000204600F02AF8242084F86F
:101D600041002068C06820F400502168C860204607
:101D700000F080FC2068006920F490402168086130
:101D80002068406920F02A00216848612068C06806
:101D900040F400502168C86000206064202084F86E
:101DA000410084F842000020606300BFC8E70000E3
:101DB00010B586B00446142101A8FEF74BFA50492D
:101DC0002068884230D100BF002000904D48006854
:101DD00040F080404B4908600846006800F08040B1
:101DE000009000BF00BF00BF0020009045481038A1
:101DF000006840F020004349103908600846006838
:101E000000F02000009000BF00BFC0200190022021
:101E1000029000200390032004900820059001A95F
:101E20003948FEF7DDFF69E038492068884230D143
:101E300000BF002000903348006840F00040314966
:101E400008600846006800F00040009000BF00BF36
:101E500000BF002000902B481038006840F01000B0
:101E60002849103908600846006800F0100000900A
:101E700000BF00BF032001900220029000200390C9
:101E8000032004900820059001A92148FEF7A8FF2F
:101E900034E020492068884230D100BF0020009003
:101EA0001848006840F48020164908600846006819
:101EB00000F48020009000BF00BF00BF0020009011
:101EC00010481038006840F004000E4910390860CE
:101ED0000846006800F00400009000BF00BF4FF407
:101EE00040600190022002900020039003200490A3
:101EF0000720059001A90848FEF772FF06B010BD43
:101F0000007800404038024000140240007C00404D
:101F100000100240004800400008024000BFFEE7F9
:101F200010B50E480E4908600320486000210C4897
:101F30008160C1604FF4102101614FF400114161D3
:101F40000021017641768176C17601774177FEF7EF
:101F500031FD08B1FEF7EDF910BD0000006400404E
:101F60002002002008B500BF002000902C48006827
:101F700040F010002A4908600846006800F0100090
:101F8000009000BF00BF00BF00200090084600681E
:101F900040F0010008600846006800F00100009071
:101FA00000BF00BF00BF002000900846006840F05E
:101FB000080008600846006800F00800009000BFB4
:101FC00000BF00BF002000900846006840F00400F9
:101FD00008600846006800F00400009000BF00BFE1
:101FE00000BF002000900846006840F080000860B4
:101FF0000846006800F08000009000BF00BF00BFEE
:10200000002000900846006840F020000860084664
:10201000006800F02000009000BF00BF08BD000075
:102020003038024000B591B000200F9010901C2174
:1020300008A8FEF70FF920216846FEF70BF927489C
:1020400027490860002048600021254881604FF63C
:10205000FF71C1600021016141618161FFF798FD5D
:1020600008B1FEF766F900200F9010900FA91C48E8
:10207000FFF780FC08B1FEF75CF9602008900020B3
:1020800009900A900B900C900D900E90002208A9D8
:102090001348FFF7FBFC08B1FEF74BF9042208A92F
:1020A0000F48FFF7F3FC08B1FEF743F9002000905A
:1020B00001900290039004904FF40050059000208E
:1020C000079069460648FFF71BFC08B1FEF731F997
:1020D0000348FFF7A9FC11B000BD0000000001405B
:1020E0004802002010B50B480B4908604FF4165009
:1020F0004860002108488160C16001610C21416194
:1021000000218161C161FFF717FE08B1FEF711F9E7
:1021100010BD000000780040D803002010B50B4827
:102120000B4908604FF41650486000210848816050
:10213000C16001610C21416100218161C161FFF732
:10214000FBFD08B1FEF7F5F810BD0000007C004073
:102150002004002010B50B480B4908604FF4E13013
:102160004860002108488160C16001610C21416123
:1021700000218161C161FFF7DFFD08B1FEF7D9F8E9
:1021800010BD0000004800406804002000BFFEE7CA
:1021900000BFFEE700B50346B0EE401A13B99FED4D
:1021A000360A00BD93ED0F0A83ED100A93ED0E0A77
:1021B00083ED0F0AC3ED050A83ED061A30EEC10A5E
:1021C00083ED0E0A93ED000AD3ED0E1A20EE210ADC
:1021D00083ED080A93ED090AD3ED011A93ED0E2A57
:1021E00001EE820A83ED090A93ED0C0A83ED0D0AD4
:1021F00093ED0B0A83ED0C0A93ED0E0AD3ED0F1A43
:1022000030EE610A83ED0B0A93ED020AD3ED0B1A4F
:1022100020EE210A83ED0A0A93ED040ABDEEC00AFE
:1022200010EE101A93ED090ABDEEC00A10EE100A66
:1022300000F0CEFB83ED090A93ED080AD3ED091AED
:1022400030EE210AD3ED0A1A30EE210A83ED070A97
:1022500093ED030ABDEEC00A10EE101A93ED070AC3
:10226000BDEEC00A10EE100A00F0B2FB83ED070AC3
:1022700093ED070A95E700000000000000B101B9E6
:10228000704791ED001A80ED001A91ED011A80ED72
:10229000011A91ED021A80ED021A80ED030AC0EDD9
:1022A000040A9FED0D1A80ED0D1A80ED0C1A80EDD9
:1022B0000B1A9FED091A80ED071A80ED0A1A80EDBE
:1022C000091A80ED081A80ED101A80ED0F1A80EDC2
:1022D0000E1A00BFD4E700000000000070477047EE
:1022E00010B5FEF78BFE10BD00B593B0302107A8E6
:1022F000FDF7B0FF142102A8FDF7ACFF00BF0020DE
:1023000001902448006840F0805022490860084647
:10231000006800F08050019000BF00BF00BF0020A7
:1023200001901D48006840F440401B490860084681
:10233000006800F44040019000BF00BF01200790FA
:102340000004089002200D9041050E9106210F9186
:10235000A8211091022111910421129107A8FFF7E1
:1023600067F808B1FDF7E5FF0F2002900220039007
:10237000002004904FF4A05005904FF48050069038
:10238000052102A8FEF714FF08B1FDF7D2FF13B034
:1023900000BD000040380240007000400348006863
:1023A00040F47000014908607047000088ED00E0CB
:1023B00010B502682D4B98420ED0B0F1804F0BD073
:1023C0002B4B984208D02B4B984205D02A4B984271
:1023D00002D02A4B984203D122F070024B681A4374
:1023E000224B984220D0B0F1804F1DD0204B984214
:1023F0001AD0204B984217D01F4B984214D01F4B35
:10240000984211D01E4B98420ED01E4B98420BD0D2
:102410001D4B984208D01D4B984205D01C4B98424A
:1024200002D01C4B984203D122F44072CB681A436D
:1024300022F080034C6943EA040202608B68C362A5
:102440000B688362094B984202D00C4B984201D131
:102450000B69036301234361036903F001031BB1AB
:10246000036923F00103036110BD00000000014077
:102470000004004000080040000C0040000401403F
:102480000040014000440140004801400018004065
:10249000001C00400020004030B501F01F05012461
:1024A00004FA05F3046A9C430462046A01F01F0500
:1024B00002FA05F52C43046230BD000030B5026A13
:1024C000056A25F0010505624368846924F07004FB
:1024D00024F003040D682C4322F002028D682A4385
:1024E000104DA84200D103E00F4DA84206D100BF15
:1024F00022F00802CD682A4322F00402094DA842C6
:1025000002D0094DA84207D123F4807323F400734D
:102510004D692B438D692B43436084614D6845634E
:10252000026230BD000001400004014030B5026A83
:10253000056A25F0100505624368846924F4E044C7
:1025400024F440740D6844EA052422F020028D68CA
:1025500042EA0512124DA84200D103E0114DA842F3
:1025600007D100BF22F08002CD6842EA051222F0B6
:1025700040020B4DA84202D00A4DA84209D123F4D3
:10258000806323F400634D6943EA85038D6943EA60
:102590008503436084614D688563026230BD00003D
:1025A000000001400004014030B5026A056A25F4CC
:1025B000807505624368C46924F0700424F0030444
:1025C0000D682C4322F400728D6842EA0522124DF8
:1025D000A84200D103E0114DA84207D100BF22F468
:1025E0000062CD6842EA052222F480620A4DA842C8
:1025F00002D00A4DA84209D123F4805323F400539A
:102600004D6943EA05138D6943EA05134360C461CC
:102610004D68C563026230BD000001400004014006
:1026200030B5036A056A25F4805505624468C269BD
:1026300022F4E04222F440720D6842EA052223F4BB
:1026400000538D6843EA0533084DA84202D0084D77
:10265000A84204D124F480444D6944EA85144460BE
:10266000C2614D680564036230BD00000000014096
:10267000000401402DE9F84F04462068006920F469
:102680004050E1680843216808612169A068084357
:1026900061690843E169084300902068C06849F215
:1026A0000C618843009908432168C860206840692C
:1026B00020F44070A1690843216848617649206888
:1026C000884203D075492068884203D1FEF748FE4E
:1026D000814602E0FEF734FE8146E069B0F5004F26
:1026E0006CD102206168A0FB015003461920A9FBB0
:1026F000007001462A463846FDF774FD6421B0FBA0
:10270000F1F04FEA001A02206168A0FB01510B466C
:102710001920A9FB00712A463846FDF763FD834660
:1027200002206168A0FB015003461920A9FB00713B
:102730002A463846FDF756FD6421B0FBF1F000EB68
:10274000C00101EB0010ABEB8000322101EBC000B7
:102750006421B0FBF1F000F0F8000AEB400A02201F
:102760006168A0FB015003461920A9FB00700146D7
:102770002A463846FDF736FD834602206168A0FBF5
:10278000015003461920A9FB00712A463846FDF77F
:1027900029FD6421B0FBF1F000EBC00101EB00105A
:1027A000ABEB8000322101EBC0006421B0FBF1F003
:1027B00000F007005044216888606AE004206168E6
:1027C000A0FB015003461920A9FB007001462A46D0
:1027D0003846FDF707FD824604206168A0FB0150E2
:1027E00003461920A9FB007001462A463846FDF72A
:1027F000F9FC6421B0FBF1F000EBC00101EB00102B
:10280000AAEB8000322101EB00106421B0FBF1F053
:1028100000F0F00A04206168A0FB01700346192053
:10282000A9FB00513A462846FDF7DCFC6421B0FBC9
:10283000F1F00AEB001A04206168A0FB01510B467D
:102840001920A9FB00712A463846FDF7CBFC8346C8
:1028500004206168A0FB015003461920A9FB007009
:1028600001462A463846FDF7BDFC6421B0FBF1F075
:1028700000EBC00101EB0010ABEB8000322101EB5B
:1028800000106421B0FBF1F000F00F00504421680B
:102890008860BDE8F88F000000100140001401407E
:1028A00000BFFEE702480068C0F302207047000046
:1028B0000CED00E010B5002804DB0A07130E054AF2
:1028C000135406E00A07140E034A00F00F031B1FFF
:1028D000D45410BD00E400E018ED00E002E008C8A8
:1028E000121F08C1002AFAD170477047002001E08A
:1028F00001C1121F002AFBD17047000000B58BB048
:1029000001200990002007900120089000200190EC
:102910000290039004900690059001A90748FDF7E6
:10292000C5FD0648FEF711FA02210448FDF704FD33
:102930000E200A9006900BB000BD0000200200207F
:1029400030B52DED048B87B01F4A07CA04AB07C30F
:102950001D4A0C3207CA01AB07C3002540F6C4105C
:1029600008EE100A401008EE900A800009EE100AE6
:10297000401009EE900A002420E004EB840101EBF2
:102980004411124A02EB810101F10C00F8EEE80A51
:10299000B8EEC80A04A9FFF771FC04EB840101EB4F
:1029A00044110A4A02EB810101F15000F8EEE90AF4
:1029B000B8EEC90A01A9FFF761FC641C022CDCDB3C
:1029C00007B0BDEC048B30BDB82A00081C00002005
:1029D0004A42904205DA4A4200EE102AB8EEC00A96
:1029E0007047884204DD00EE101AB8EEC00AF7E71F
:1029F00000EE100AB8EEC00AF2E70000FEF70AFB8C
:102A0000FFF772FCFFF7AEFAFFF78AFAFFF70AFB4F
:102A1000FFF768FBFFF782FBFFF79CFB04211D48D3
:102A2000FFF704F9FFF76AFFFFF78AFF002400258C
:102A30002EE01948B0F9020000EE900AF8EEE00A24
:102A4000B0EE600ADFED150A13480C30FFF7A2FB69
:102A5000BDEEC00A10EE104A0F48B0F9960000EE25
:102A6000900AF8EEE00AB0EE600ADFED0C0A0A48C0
:102A7000A030FFF78FFBBDEEC00A10EE105A002306
:102A80001A4629B220B2FDF72BFC3220FEF794F94A
:102A9000CFE70000480200201C0000200000FA439D
:102AA00000000000000000000102030406070809FE
:102AB00000000000010203043333733FCDCC4C3ED1
:102AC000CDCCCC3D0000803FCDCC4C3ECDCCCC3DE0
:102AD000F02A0008000000201C000000DC2800088C
:102AE0000C2B00081C000020AC080000EC2800089B
:102AF0000000000010000000010000000024F400AD
:0C2B0000000000000000000000000000C9
:04000005080001AD41
:00000001FF
